{
  "_format": "hh-sol-artifact-1",
  "contractName": "MyTokenFactory",
  "sourceName": "contracts/TokenFactory.sol",
  "abi": [
    {
      "anonymous": false,
      "inputs": [
        {
          "indexed": true,
          "internalType": "contract MyToken",
          "name": "myToken",
          "type": "address"
        },
        {
          "indexed": true,
          "internalType": "address",
          "name": "owner",
          "type": "address"
        }
      ],
      "name": "MyTokenCreated",
      "type": "event"
    },
    {
      "inputs": [
        {
          "internalType": "string",
          "name": "name",
          "type": "string"
        },
        {
          "internalType": "string",
          "name": "symbol",
          "type": "string"
        }
      ],
      "name": "createMyToken",
      "outputs": [],
      "stateMutability": "nonpayable",
      "type": "function"
    },
    {
      "inputs": [
        {
          "internalType": "uint256",
          "name": "limit",
          "type": "uint256"
        },
        {
          "internalType": "uint256",
          "name": "offset",
          "type": "uint256"
        }
      ],
      "name": "myTokens",
      "outputs": [
        {
          "internalType": "contract MyToken[]",
          "name": "coll",
          "type": "address[]"
        }
      ],
      "stateMutability": "view",
      "type": "function"
    },
    {
      "inputs": [],
      "name": "myTokensCount",
      "outputs": [
        {
          "internalType": "uint256",
          "name": "",
          "type": "uint256"
        }
      ],
      "stateMutability": "view",
      "type": "function"
    }
  ],
  "bytecode": "0x608060405234801561001057600080fd5b506155d7806100206000396000f3fe60806040523480156200001157600080fd5b5060043610620000465760003560e01c806327679378146200004b5780638eeccfc5146200006b578063f8e7df3f14620000a1575b600080fd5b6200006960048036038101906200006391906200056f565b620000c3565b005b6200008960048036038101906200008391906200062f565b62000233565b604051620000989190620007be565b60405180910390f35b620000ab620003df565b604051620000ba9190620007f3565b60405180910390f35b60008282604051620000d590620003eb565b620000e292919062000899565b604051809103906000f080158015620000ff573d6000803e3d6000fd5b5090508073ffffffffffffffffffffffffffffffffffffffff1663f2fde38b336040518263ffffffff1660e01b81526004016200013d9190620008f9565b600060405180830381600087803b1580156200015857600080fd5b505af11580156200016d573d6000803e3d6000fd5b505050506000819080600181540180825580915050600190039060005260206000200160009091909190916101000a81548173ffffffffffffffffffffffffffffffffffffffff021916908373ffffffffffffffffffffffffffffffffffffffff1602179055503373ffffffffffffffffffffffffffffffffffffffff168173ffffffffffffffffffffffffffffffffffffffff167fe8cf188f53a0fb2edbb26ce715ac0f54c9a7543b23abd6363a3625b1f8a4654860405160405180910390a3505050565b60606200023f620003df565b82111562000284576040517f08c379a00000000000000000000000000000000000000000000000000000000081526004016200027b9062000966565b60405180910390fd5b60008262000291620003df565b6200029d9190620009b7565b9050838110620002ae5783620002b0565b805b905060148110620002c3576014620002c5565b805b90508067ffffffffffffffff811115620002e457620002e362000428565b5b604051908082528060200260200182016040528015620003135781602001602082028036833780820191505090505b50915060005b81811015620003d75760008185620003329190620009f2565b8154811062000346576200034562000a2d565b5b9060005260206000200160009054906101000a900473ffffffffffffffffffffffffffffffffffffffff1683828151811062000387576200038662000a2d565b5b602002602001019073ffffffffffffffffffffffffffffffffffffffff16908173ffffffffffffffffffffffffffffffffffffffff16815250508080620003ce9062000a5c565b91505062000319565b505092915050565b60008080549050905090565b614af88062000aaa83390190565b6000604051905090565b600080fd5b600080fd5b600080fd5b600080fd5b6000601f19601f8301169050919050565b7f4e487b7100000000000000000000000000000000000000000000000000000000600052604160045260246000fd5b620004628262000417565b810181811067ffffffffffffffff8211171562000484576200048362000428565b5b80604052505050565b600062000499620003f9565b9050620004a7828262000457565b919050565b600067ffffffffffffffff821115620004ca57620004c962000428565b5b620004d58262000417565b9050602081019050919050565b82818337600083830152505050565b6000620005086200050284620004ac565b6200048d565b90508281526020810184848401111562000527576200052662000412565b5b62000534848285620004e2565b509392505050565b600082601f8301126200055457620005536200040d565b5b813562000566848260208601620004f1565b91505092915050565b6000806040838503121562000589576200058862000403565b5b600083013567ffffffffffffffff811115620005aa57620005a962000408565b5b620005b8858286016200053c565b925050602083013567ffffffffffffffff811115620005dc57620005db62000408565b5b620005ea858286016200053c565b9150509250929050565b6000819050919050565b6200060981620005f4565b81146200061557600080fd5b50565b6000813590506200062981620005fe565b92915050565b6000806040838503121562000649576200064862000403565b5b6000620006598582860162000618565b92505060206200066c8582860162000618565b9150509250929050565b600081519050919050565b600082825260208201905092915050565b6000819050602082019050919050565b600073ffffffffffffffffffffffffffffffffffffffff82169050919050565b6000819050919050565b6000620006ed620006e7620006e184620006a2565b620006c2565b620006a2565b9050919050565b60006200070182620006cc565b9050919050565b60006200071582620006f4565b9050919050565b620007278162000708565b82525050565b60006200073b83836200071c565b60208301905092915050565b6000602082019050919050565b6000620007618262000676565b6200076d818562000681565b93506200077a8362000692565b8060005b83811015620007b15781516200079588826200072d565b9750620007a28362000747565b9250506001810190506200077e565b5085935050505092915050565b60006020820190508181036000830152620007da818462000754565b905092915050565b620007ed81620005f4565b82525050565b60006020820190506200080a6000830184620007e2565b92915050565b600081519050919050565b600082825260208201905092915050565b60005b838110156200084c5780820151818401526020810190506200082f565b60008484015250505050565b6000620008658262000810565b6200087181856200081b565b9350620008838185602086016200082c565b6200088e8162000417565b840191505092915050565b60006040820190508181036000830152620008b5818562000858565b90508181036020830152620008cb818462000858565b90509392505050565b6000620008e182620006a2565b9050919050565b620008f381620008d4565b82525050565b6000602082019050620009106000830184620008e8565b92915050565b7f6f6666736574206f7574206f6620626f756e6473000000000000000000000000600082015250565b60006200094e6014836200081b565b91506200095b8262000916565b602082019050919050565b6000602082019050818103600083015262000981816200093f565b9050919050565b7f4e487b7100000000000000000000000000000000000000000000000000000000600052601160045260246000fd5b6000620009c482620005f4565b9150620009d183620005f4565b9250828203905081811115620009ec57620009eb62000988565b5b92915050565b6000620009ff82620005f4565b915062000a0c83620005f4565b925082820190508082111562000a275762000a2662000988565b5b92915050565b7f4e487b7100000000000000000000000000000000000000000000000000000000600052603260045260246000fd5b600062000a6982620005f4565b91507fffffffffffffffffffffffffffffffffffffffffffffffffffffffffffffffff820362000a9e5762000a9d62000988565b5b60018201905091905056fe6101406040523480156200001257600080fd5b5060405162004af838038062004af883398181016040528101906200003891906200044f565b81806040518060400160405280600181526020017f3100000000000000000000000000000000000000000000000000000000000000815250848481600390816200008391906200071f565b5080600490816200009591906200071f565b5050506000600560006101000a81548160ff021916908315150217905550620000d3620000c7620001b260201b60201c565b620001ba60201b60201c565b60008280519060200120905060008280519060200120905060007f8b73c3c69bb8fe3d512ecc4cf759cc79239f7b179b0ffacaa9a75d522b39400f90508260e081815250508161010081815250504660a081815250506200013c8184846200028060201b60201c565b608081815250503073ffffffffffffffffffffffffffffffffffffffff1660c08173ffffffffffffffffffffffffffffffffffffffff168152505080610120818152505050505050505081600b90816200019791906200071f565b5080600c9081620001a991906200071f565b505050620008d4565b600033905090565b6000600560019054906101000a900473ffffffffffffffffffffffffffffffffffffffff16905081600560016101000a81548173ffffffffffffffffffffffffffffffffffffffff021916908373ffffffffffffffffffffffffffffffffffffffff1602179055508173ffffffffffffffffffffffffffffffffffffffff168173ffffffffffffffffffffffffffffffffffffffff167f8be0079c531659141344cd1fd0a4f28419497f9722a3daafe3b4186f6b6457e060405160405180910390a35050565b600083838346306040516020016200029d95949392919062000877565b6040516020818303038152906040528051906020012090509392505050565b6000604051905090565b600080fd5b600080fd5b600080fd5b600080fd5b6000601f19601f8301169050919050565b7f4e487b7100000000000000000000000000000000000000000000000000000000600052604160045260246000fd5b6200032582620002da565b810181811067ffffffffffffffff82111715620003475762000346620002eb565b5b80604052505050565b60006200035c620002bc565b90506200036a82826200031a565b919050565b600067ffffffffffffffff8211156200038d576200038c620002eb565b5b6200039882620002da565b9050602081019050919050565b60005b83811015620003c5578082015181840152602081019050620003a8565b60008484015250505050565b6000620003e8620003e2846200036f565b62000350565b905082815260208101848484011115620004075762000406620002d5565b5b62000414848285620003a5565b509392505050565b600082601f830112620004345762000433620002d0565b5b815162000446848260208601620003d1565b91505092915050565b60008060408385031215620004695762000468620002c6565b5b600083015167ffffffffffffffff8111156200048a5762000489620002cb565b5b62000498858286016200041c565b925050602083015167ffffffffffffffff811115620004bc57620004bb620002cb565b5b620004ca858286016200041c565b9150509250929050565b600081519050919050565b7f4e487b7100000000000000000000000000000000000000000000000000000000600052602260045260246000fd5b600060028204905060018216806200052757607f821691505b6020821081036200053d576200053c620004df565b5b50919050565b60008190508160005260206000209050919050565b60006020601f8301049050919050565b600082821b905092915050565b600060088302620005a77fffffffffffffffffffffffffffffffffffffffffffffffffffffffffffffffff8262000568565b620005b3868362000568565b95508019841693508086168417925050509392505050565b6000819050919050565b6000819050919050565b600062000600620005fa620005f484620005cb565b620005d5565b620005cb565b9050919050565b6000819050919050565b6200061c83620005df565b620006346200062b8262000607565b84845462000575565b825550505050565b600090565b6200064b6200063c565b6200065881848462000611565b505050565b5b8181101562000680576200067460008262000641565b6001810190506200065e565b5050565b601f821115620006cf57620006998162000543565b620006a48462000558565b81016020851015620006b4578190505b620006cc620006c38562000558565b8301826200065d565b50505b505050565b600082821c905092915050565b6000620006f460001984600802620006d4565b1980831691505092915050565b60006200070f8383620006e1565b9150826002028217905092915050565b6200072a82620004d4565b67ffffffffffffffff811115620007465762000745620002eb565b5b6200075282546200050e565b6200075f82828562000684565b600060209050601f83116001811462000797576000841562000782578287015190505b6200078e858262000701565b865550620007fe565b601f198416620007a78662000543565b60005b82811015620007d157848901518255600182019150602085019450602081019050620007aa565b86831015620007f15784890151620007ed601f891682620006e1565b8355505b6001600288020188555050505b505050505050565b6000819050919050565b6200081b8162000806565b82525050565b6200082c81620005cb565b82525050565b600073ffffffffffffffffffffffffffffffffffffffff82169050919050565b60006200085f8262000832565b9050919050565b620008718162000852565b82525050565b600060a0820190506200088e600083018862000810565b6200089d602083018762000810565b620008ac604083018662000810565b620008bb606083018562000821565b620008ca608083018462000866565b9695505050505050565b60805160a05160c05160e05161010051610120516141d462000924600039600061172601526000611768015260006117470152600061167c015260006116d2015260006116fb01526141d46000f3fe608060405234801561001057600080fd5b50600436106101fb5760003560e01c8063715018a61161011a5780639dc29fac116100ad578063c3cda5201161007c578063c3cda520146105d8578063d505accf146105f4578063dd62ed3e14610610578063f1127ed814610640578063f2fde38b14610670576101fb565b80639dc29fac14610540578063a457c2d71461055c578063a9059cbb1461058c578063aad3ec96146105bc576101fb565b80638da5cb5b116100e95780638da5cb5b146104a45780638e539e8c146104c257806395d89b41146104f25780639ab24eb014610510576101fb565b8063715018a61461044457806379cc67901461044e5780637ecebe001461046a5780638456cb591461049a576101fb565b80633f4ba83a116101925780635c19a95c116101615780635c19a95c146103aa5780635c975abb146103c65780636fcfff45146103e457806370a0823114610414576101fb565b80633f4ba83a1461033857806340c10f191461034257806342966c681461035e578063587cde1e1461037a576101fb565b8063313ce567116101ce578063313ce5671461029c5780633644e515146102ba57806339509351146102d85780633a46b1a814610308576101fb565b806306fdde0314610200578063095ea7b31461021e57806318160ddd1461024e57806323b872dd1461026c575b600080fd5b61020861068c565b6040516102159190612b2d565b60405180910390f35b61023860048036038101906102339190612be8565b61071e565b6040516102459190612c43565b60405180910390f35b610256610741565b6040516102639190612c6d565b60405180910390f35b61028660048036038101906102819190612c88565b61074b565b6040516102939190612c43565b60405180910390f35b6102a461077a565b6040516102b19190612cf7565b60405180910390f35b6102c261077f565b6040516102cf9190612d2b565b60405180910390f35b6102f260048036038101906102ed9190612be8565b61078e565b6040516102ff9190612c43565b60405180910390f35b610322600480360381019061031d9190612be8565b6107c5565b60405161032f9190612c6d565b60405180910390f35b610340610859565b005b61035c60048036038101906103579190612be8565b61086b565b005b61037860048036038101906103739190612d46565b610881565b005b610394600480360381019061038f9190612d73565b610895565b6040516103a19190612daf565b60405180910390f35b6103c460048036038101906103bf9190612d73565b6108fe565b005b6103ce610912565b6040516103db9190612c43565b60405180910390f35b6103fe60048036038101906103f99190612d73565b610929565b60405161040b9190612de9565b60405180910390f35b61042e60048036038101906104299190612d73565b61097d565b60405161043b9190612c6d565b60405180910390f35b61044c6109c5565b005b61046860048036038101906104639190612be8565b6109d9565b005b610484600480360381019061047f9190612d73565b6109f9565b6040516104919190612c6d565b60405180910390f35b6104a2610a49565b005b6104ac610a5b565b6040516104b99190612daf565b60405180910390f35b6104dc60048036038101906104d79190612d46565b610a85565b6040516104e99190612c6d565b60405180910390f35b6104fa610adb565b6040516105079190612b2d565b60405180910390f35b61052a60048036038101906105259190612d73565b610b6d565b6040516105379190612c6d565b60405180910390f35b61055a60048036038101906105559190612be8565b610c7e565b005b61057660048036038101906105719190612be8565b610c94565b6040516105839190612c43565b60405180910390f35b6105a660048036038101906105a19190612be8565b610d0b565b6040516105b39190612c43565b60405180910390f35b6105d660048036038101906105d19190612be8565b610d2e565b005b6105f260048036038101906105ed9190612e5c565b610d3c565b005b61060e60048036038101906106099190612ee9565b610e40565b005b61062a60048036038101906106259190612f8b565b610f82565b6040516106379190612c6d565b60405180910390f35b61065a60048036038101906106559190612ff7565b611009565b60405161066791906130ac565b60405180910390f35b61068a60048036038101906106859190612d73565b611119565b005b60606003805461069b906130f6565b80601f01602080910402602001604051908101604052809291908181526020018280546106c7906130f6565b80156107145780601f106106e957610100808354040283529160200191610714565b820191906000526020600020905b8154815290600101906020018083116106f757829003601f168201915b5050505050905090565b60008061072961119c565b90506107368185856111a4565b600191505092915050565b6000600254905090565b60008061075661119c565b905061076385828561136d565b61076e8585856113f9565b60019150509392505050565b600090565b6000610789611678565b905090565b60008061079961119c565b90506107ba8185856107ab8589610f82565b6107b59190613156565b6111a4565b600191505092915050565b6000438210610809576040517f08c379a0000000000000000000000000000000000000000000000000000000008152600401610800906131d6565b60405180910390fd5b610851600960008573ffffffffffffffffffffffffffffffffffffffff1673ffffffffffffffffffffffffffffffffffffffff16815260200190815260200160002083611792565b905092915050565b61086161189e565b61086961191c565b565b61087361189e565b61087d828261197f565b5050565b61089261088c61119c565b8261198d565b50565b6000600860008373ffffffffffffffffffffffffffffffffffffffff1673ffffffffffffffffffffffffffffffffffffffff16815260200190815260200160002060009054906101000a900473ffffffffffffffffffffffffffffffffffffffff169050919050565b61090f61090961119c565b8261199b565b50565b6000600560009054906101000a900460ff16905090565b6000610976600960008473ffffffffffffffffffffffffffffffffffffffff1673ffffffffffffffffffffffffffffffffffffffff16815260200190815260200160002080549050611ab5565b9050919050565b60008060008373ffffffffffffffffffffffffffffffffffffffff1673ffffffffffffffffffffffffffffffffffffffff168152602001908152602001600020549050919050565b6109cd61189e565b6109d76000611b08565b565b6109eb826109e561119c565b8361136d565b6109f5828261198d565b5050565b6000610a42600660008473ffffffffffffffffffffffffffffffffffffffff1673ffffffffffffffffffffffffffffffffffffffff168152602001908152602001600020611bce565b9050919050565b610a5161189e565b610a59611bdc565b565b6000600560019054906101000a900473ffffffffffffffffffffffffffffffffffffffff16905090565b6000438210610ac9576040517f08c379a0000000000000000000000000000000000000000000000000000000008152600401610ac0906131d6565b60405180910390fd5b610ad4600a83611792565b9050919050565b606060048054610aea906130f6565b80601f0160208091040260200160405190810160405280929190818152602001828054610b16906130f6565b8015610b635780601f10610b3857610100808354040283529160200191610b63565b820191906000526020600020905b815481529060010190602001808311610b4657829003601f168201915b5050505050905090565b600080600960008473ffffffffffffffffffffffffffffffffffffffff1673ffffffffffffffffffffffffffffffffffffffff16815260200190815260200160002080549050905060008114610c5557600960008473ffffffffffffffffffffffffffffffffffffffff1673ffffffffffffffffffffffffffffffffffffffff168152602001908152602001600020600182610c0991906131f6565b81548110610c1a57610c1961322a565b5b9060005260206000200160000160049054906101000a90047bffffffffffffffffffffffffffffffffffffffffffffffffffffffff16610c58565b60005b7bffffffffffffffffffffffffffffffffffffffffffffffffffffffff16915050919050565b610c8661189e565b610c90828261198d565b5050565b600080610c9f61119c565b90506000610cad8286610f82565b905083811015610cf2576040517f08c379a0000000000000000000000000000000000000000000000000000000008152600401610ce9906132cb565b60405180910390fd5b610cff82868684036111a4565b60019250505092915050565b600080610d1661119c565b9050610d238185856113f9565b600191505092915050565b610d38828261197f565b5050565b83421115610d7f576040517f08c379a0000000000000000000000000000000000000000000000000000000008152600401610d7690613337565b60405180910390fd5b6000610de1610dd97fe48329057bfd03d55e49b547132e39cffd9c1820ad7b9d4c5307691425d15adf898989604051602001610dbe9493929190613357565b60405160208183030381529060405280519060200120611c3f565b858585611c59565b9050610dec81611c84565b8614610e2d576040517f08c379a0000000000000000000000000000000000000000000000000000000008152600401610e24906133e8565b60405180910390fd5b610e37818861199b565b50505050505050565b83421115610e83576040517f08c379a0000000000000000000000000000000000000000000000000000000008152600401610e7a90613454565b60405180910390fd5b60007f6e71edae12b1b97f4d1f60370fef10105fa2faae0126114a169c64845d6126c9888888610eb28c611c84565b89604051602001610ec896959493929190613474565b6040516020818303038152906040528051906020012090506000610eeb82611c3f565b90506000610efb82878787611c59565b90508973ffffffffffffffffffffffffffffffffffffffff168173ffffffffffffffffffffffffffffffffffffffff1614610f6b576040517f08c379a0000000000000000000000000000000000000000000000000000000008152600401610f6290613521565b60405180910390fd5b610f768a8a8a6111a4565b50505050505050505050565b6000600160008473ffffffffffffffffffffffffffffffffffffffff1673ffffffffffffffffffffffffffffffffffffffff16815260200190815260200160002060008373ffffffffffffffffffffffffffffffffffffffff1673ffffffffffffffffffffffffffffffffffffffff16815260200190815260200160002054905092915050565b611011612a5f565b600960008473ffffffffffffffffffffffffffffffffffffffff1673ffffffffffffffffffffffffffffffffffffffff1681526020019081526020016000208263ffffffff16815481106110685761106761322a565b5b906000526020600020016040518060400160405290816000820160009054906101000a900463ffffffff1663ffffffff1663ffffffff1681526020016000820160049054906101000a90047bffffffffffffffffffffffffffffffffffffffffffffffffffffffff167bffffffffffffffffffffffffffffffffffffffffffffffffffffffff167bffffffffffffffffffffffffffffffffffffffffffffffffffffffff1681525050905092915050565b61112161189e565b600073ffffffffffffffffffffffffffffffffffffffff168173ffffffffffffffffffffffffffffffffffffffff1603611190576040517f08c379a0000000000000000000000000000000000000000000000000000000008152600401611187906135b3565b60405180910390fd5b61119981611b08565b50565b600033905090565b600073ffffffffffffffffffffffffffffffffffffffff168373ffffffffffffffffffffffffffffffffffffffff1603611213576040517f08c379a000000000000000000000000000000000000000000000000000000000815260040161120a90613645565b60405180910390fd5b600073ffffffffffffffffffffffffffffffffffffffff168273ffffffffffffffffffffffffffffffffffffffff1603611282576040517f08c379a0000000000000000000000000000000000000000000000000000000008152600401611279906136d7565b60405180910390fd5b80600160008573ffffffffffffffffffffffffffffffffffffffff1673ffffffffffffffffffffffffffffffffffffffff16815260200190815260200160002060008473ffffffffffffffffffffffffffffffffffffffff1673ffffffffffffffffffffffffffffffffffffffff168152602001908152602001600020819055508173ffffffffffffffffffffffffffffffffffffffff168373ffffffffffffffffffffffffffffffffffffffff167f8c5be1e5ebec7d5bd14f71427d1e84f3dd0314c0f7b2291e5b200ac8c7c3b925836040516113609190612c6d565b60405180910390a3505050565b60006113798484610f82565b90507fffffffffffffffffffffffffffffffffffffffffffffffffffffffffffffffff81146113f357818110156113e5576040517f08c379a00000000000000000000000000000000000000000000000000000000081526004016113dc90613743565b60405180910390fd5b6113f284848484036111a4565b5b50505050565b600073ffffffffffffffffffffffffffffffffffffffff168373ffffffffffffffffffffffffffffffffffffffff1603611468576040517f08c379a000000000000000000000000000000000000000000000000000000000815260040161145f906137d5565b60405180910390fd5b600073ffffffffffffffffffffffffffffffffffffffff168273ffffffffffffffffffffffffffffffffffffffff16036114d7576040517f08c379a00000000000000000000000000000000000000000000000000000000081526004016114ce90613867565b60405180910390fd5b6114e2838383611ce2565b60008060008573ffffffffffffffffffffffffffffffffffffffff1673ffffffffffffffffffffffffffffffffffffffff16815260200190815260200160002054905081811015611568576040517f08c379a000000000000000000000000000000000000000000000000000000000815260040161155f906138f9565b60405180910390fd5b8181036000808673ffffffffffffffffffffffffffffffffffffffff1673ffffffffffffffffffffffffffffffffffffffff16815260200190815260200160002081905550816000808573ffffffffffffffffffffffffffffffffffffffff1673ffffffffffffffffffffffffffffffffffffffff16815260200190815260200160002060008282546115fb9190613156565b925050819055508273ffffffffffffffffffffffffffffffffffffffff168473ffffffffffffffffffffffffffffffffffffffff167fddf252ad1be2c89b69c2b068fc378daa952ba7f163c4a11628f55a4df523b3ef8460405161165f9190612c6d565b60405180910390a3611672848484611cfa565b50505050565b60007f000000000000000000000000000000000000000000000000000000000000000073ffffffffffffffffffffffffffffffffffffffff163073ffffffffffffffffffffffffffffffffffffffff161480156116f457507f000000000000000000000000000000000000000000000000000000000000000046145b15611721577f0000000000000000000000000000000000000000000000000000000000000000905061178f565b61178c7f00000000000000000000000000000000000000000000000000000000000000007f00000000000000000000000000000000000000000000000000000000000000007f0000000000000000000000000000000000000000000000000000000000000000611d0a565b90505b90565b6000808380549050905060005b818110156118115760006117b38284611d44565b9050848682815481106117c9576117c861322a565b5b9060005260206000200160000160009054906101000a900463ffffffff1663ffffffff1611156117fb5780925061180b565b6001816118089190613156565b91505b5061179f565b60008214611873578460018361182791906131f6565b815481106118385761183761322a565b5b9060005260206000200160000160049054906101000a90047bffffffffffffffffffffffffffffffffffffffffffffffffffffffff16611876565b60005b7bffffffffffffffffffffffffffffffffffffffffffffffffffffffff169250505092915050565b6118a661119c565b73ffffffffffffffffffffffffffffffffffffffff166118c4610a5b565b73ffffffffffffffffffffffffffffffffffffffff161461191a576040517f08c379a000000000000000000000000000000000000000000000000000000000815260040161191190613965565b60405180910390fd5b565b611924611d6a565b6000600560006101000a81548160ff0219169083151502179055507f5db9ee0a495bf2e6ff9c91a7834c1ba4fdd244a5e8aa4e537bd38aeae4b073aa61196861119c565b6040516119759190612daf565b60405180910390a1565b6119898282611db3565b5050565b6119978282611e40565b5050565b60006119a683610895565b905060006119b38461097d565b905082600860008673ffffffffffffffffffffffffffffffffffffffff1673ffffffffffffffffffffffffffffffffffffffff16815260200190815260200160002060006101000a81548173ffffffffffffffffffffffffffffffffffffffff021916908373ffffffffffffffffffffffffffffffffffffffff1602179055508273ffffffffffffffffffffffffffffffffffffffff168273ffffffffffffffffffffffffffffffffffffffff168573ffffffffffffffffffffffffffffffffffffffff167f3134e8a2e6d97e929a7e54011ea5485d7d196dd5f0ba4d4ef95803e8e3fc257f60405160405180910390a4611aaf828483611e5e565b50505050565b600063ffffffff8016821115611b00576040517f08c379a0000000000000000000000000000000000000000000000000000000008152600401611af7906139f7565b60405180910390fd5b819050919050565b6000600560019054906101000a900473ffffffffffffffffffffffffffffffffffffffff16905081600560016101000a81548173ffffffffffffffffffffffffffffffffffffffff021916908373ffffffffffffffffffffffffffffffffffffffff1602179055508173ffffffffffffffffffffffffffffffffffffffff168173ffffffffffffffffffffffffffffffffffffffff167f8be0079c531659141344cd1fd0a4f28419497f9722a3daafe3b4186f6b6457e060405160405180910390a35050565b600081600001549050919050565b611be4612057565b6001600560006101000a81548160ff0219169083151502179055507f62e78cea01bee320cd4e420270b5ea74000d11b0c9f74754ebdbfc544b05a258611c2861119c565b604051611c359190612daf565b60405180910390a1565b6000611c52611c4c611678565b836120a1565b9050919050565b6000806000611c6a878787876120d4565b91509150611c77816121e0565b8192505050949350505050565b600080600660008473ffffffffffffffffffffffffffffffffffffffff1673ffffffffffffffffffffffffffffffffffffffff1681526020019081526020016000209050611cd181611bce565b9150611cdc816123ac565b50919050565b611cea612057565b611cf58383836123c2565b505050565b611d058383836123c7565b505050565b60008383834630604051602001611d25959493929190613a17565b6040516020818303038152906040528051906020012090509392505050565b60006002828418611d559190613a99565b828416611d629190613156565b905092915050565b611d72610912565b611db1576040517f08c379a0000000000000000000000000000000000000000000000000000000008152600401611da890613b16565b60405180910390fd5b565b611dbd82826123f2565b611dc5612551565b7bffffffffffffffffffffffffffffffffffffffffffffffffffffffff16611deb610741565b1115611e2c576040517f08c379a0000000000000000000000000000000000000000000000000000000008152600401611e2390613ba8565b60405180910390fd5b611e3a600a6125758361258b565b50505050565b611e4a8282612803565b611e58600a6129d98361258b565b50505050565b8173ffffffffffffffffffffffffffffffffffffffff168373ffffffffffffffffffffffffffffffffffffffff1614158015611e9a5750600081115b1561205257600073ffffffffffffffffffffffffffffffffffffffff168373ffffffffffffffffffffffffffffffffffffffff1614611f7857600080611f21600960008773ffffffffffffffffffffffffffffffffffffffff1673ffffffffffffffffffffffffffffffffffffffff1681526020019081526020016000206129d98561258b565b915091508473ffffffffffffffffffffffffffffffffffffffff167fdec2bacdd2f05b59de34da9b523dff8be42e5e38e818c82fdb0bae774387a7248383604051611f6d929190613bc8565b60405180910390a250505b600073ffffffffffffffffffffffffffffffffffffffff168273ffffffffffffffffffffffffffffffffffffffff161461205157600080611ffa600960008673ffffffffffffffffffffffffffffffffffffffff1673ffffffffffffffffffffffffffffffffffffffff1681526020019081526020016000206125758561258b565b915091508373ffffffffffffffffffffffffffffffffffffffff167fdec2bacdd2f05b59de34da9b523dff8be42e5e38e818c82fdb0bae774387a7248383604051612046929190613bc8565b60405180910390a250505b5b505050565b61205f610912565b1561209f576040517f08c379a000000000000000000000000000000000000000000000000000000000815260040161209690613c3d565b60405180910390fd5b565b600082826040516020016120b6929190613cd5565b60405160208183030381529060405280519060200120905092915050565b6000807f7fffffffffffffffffffffffffffffff5d576e7357a4501ddfe92f46681b20a08360001c111561210f5760006003915091506121d7565b601b8560ff16141580156121275750601c8560ff1614155b156121395760006004915091506121d7565b60006001878787876040516000815260200160405260405161215e9493929190613d0c565b6020604051602081039080840390855afa158015612180573d6000803e3d6000fd5b505050602060405103519050600073ffffffffffffffffffffffffffffffffffffffff168173ffffffffffffffffffffffffffffffffffffffff16036121ce576000600192509250506121d7565b80600092509250505b94509492505050565b600060048111156121f4576121f3613d51565b5b81600481111561220757612206613d51565b5b03156123a9576001600481111561222157612220613d51565b5b81600481111561223457612233613d51565b5b03612274576040517f08c379a000000000000000000000000000000000000000000000000000000000815260040161226b90613dcc565b60405180910390fd5b6002600481111561228857612287613d51565b5b81600481111561229b5761229a613d51565b5b036122db576040517f08c379a00000000000000000000000000000000000000000000000000000000081526004016122d290613e38565b60405180910390fd5b600360048111156122ef576122ee613d51565b5b81600481111561230257612301613d51565b5b03612342576040517f08c379a000000000000000000000000000000000000000000000000000000000815260040161233990613eca565b60405180910390fd5b60048081111561235557612354613d51565b5b81600481111561236857612367613d51565b5b036123a8576040517f08c379a000000000000000000000000000000000000000000000000000000000815260040161239f90613f5c565b60405180910390fd5b5b50565b6001816000016000828254019250508190555050565b505050565b6123d28383836129ef565b6123ed6123de84610895565b6123e784610895565b83611e5e565b505050565b600073ffffffffffffffffffffffffffffffffffffffff168273ffffffffffffffffffffffffffffffffffffffff1603612461576040517f08c379a000000000000000000000000000000000000000000000000000000000815260040161245890613fc8565b60405180910390fd5b61246d60008383611ce2565b806002600082825461247f9190613156565b92505081905550806000808473ffffffffffffffffffffffffffffffffffffffff1673ffffffffffffffffffffffffffffffffffffffff16815260200190815260200160002060008282546124d49190613156565b925050819055508173ffffffffffffffffffffffffffffffffffffffff16600073ffffffffffffffffffffffffffffffffffffffff167fddf252ad1be2c89b69c2b068fc378daa952ba7f163c4a11628f55a4df523b3ef836040516125399190612c6d565b60405180910390a361254d60008383611cfa565b5050565b60007bffffffffffffffffffffffffffffffffffffffffffffffffffffffff905090565b600081836125839190613156565b905092915050565b600080600085805490509050600081146125f957856001826125ad91906131f6565b815481106125be576125bd61322a565b5b9060005260206000200160000160049054906101000a90047bffffffffffffffffffffffffffffffffffffffffffffffffffffffff166125fc565b60005b7bffffffffffffffffffffffffffffffffffffffffffffffffffffffff16925061262a83858763ffffffff16565b915060008111801561267d5750438660018361264691906131f6565b815481106126575761265661322a565b5b9060005260206000200160000160009054906101000a900463ffffffff1663ffffffff16145b1561270a5761268b826129f4565b8660018361269991906131f6565b815481106126aa576126a961322a565b5b9060005260206000200160000160046101000a8154817bffffffffffffffffffffffffffffffffffffffffffffffffffffffff02191690837bffffffffffffffffffffffffffffffffffffffffffffffffffffffff1602179055506127fa565b85604051806040016040528061271f43611ab5565b63ffffffff168152602001612733856129f4565b7bffffffffffffffffffffffffffffffffffffffffffffffffffffffff168152509080600181540180825580915050600190039060005260206000200160009091909190915060008201518160000160006101000a81548163ffffffff021916908363ffffffff16021790555060208201518160000160046101000a8154817bffffffffffffffffffffffffffffffffffffffffffffffffffffffff02191690837bffffffffffffffffffffffffffffffffffffffffffffffffffffffff16021790555050505b50935093915050565b600073ffffffffffffffffffffffffffffffffffffffff168273ffffffffffffffffffffffffffffffffffffffff1603612872576040517f08c379a00000000000000000000000000000000000000000000000000000000081526004016128699061405a565b60405180910390fd5b61287e82600083611ce2565b60008060008473ffffffffffffffffffffffffffffffffffffffff1673ffffffffffffffffffffffffffffffffffffffff16815260200190815260200160002054905081811015612904576040517f08c379a00000000000000000000000000000000000000000000000000000000081526004016128fb906140ec565b60405180910390fd5b8181036000808573ffffffffffffffffffffffffffffffffffffffff1673ffffffffffffffffffffffffffffffffffffffff16815260200190815260200160002081905550816002600082825461295b91906131f6565b92505081905550600073ffffffffffffffffffffffffffffffffffffffff168373ffffffffffffffffffffffffffffffffffffffff167fddf252ad1be2c89b69c2b068fc378daa952ba7f163c4a11628f55a4df523b3ef846040516129c09190612c6d565b60405180910390a36129d483600084611cfa565b505050565b600081836129e791906131f6565b905092915050565b505050565b60007bffffffffffffffffffffffffffffffffffffffffffffffffffffffff8016821115612a57576040517f08c379a0000000000000000000000000000000000000000000000000000000008152600401612a4e9061417e565b60405180910390fd5b819050919050565b6040518060400160405280600063ffffffff16815260200160007bffffffffffffffffffffffffffffffffffffffffffffffffffffffff1681525090565b600081519050919050565b600082825260208201905092915050565b60005b83811015612ad7578082015181840152602081019050612abc565b60008484015250505050565b6000601f19601f8301169050919050565b6000612aff82612a9d565b612b098185612aa8565b9350612b19818560208601612ab9565b612b2281612ae3565b840191505092915050565b60006020820190508181036000830152612b478184612af4565b905092915050565b600080fd5b600073ffffffffffffffffffffffffffffffffffffffff82169050919050565b6000612b7f82612b54565b9050919050565b612b8f81612b74565b8114612b9a57600080fd5b50565b600081359050612bac81612b86565b92915050565b6000819050919050565b612bc581612bb2565b8114612bd057600080fd5b50565b600081359050612be281612bbc565b92915050565b60008060408385031215612bff57612bfe612b4f565b5b6000612c0d85828601612b9d565b9250506020612c1e85828601612bd3565b9150509250929050565b60008115159050919050565b612c3d81612c28565b82525050565b6000602082019050612c586000830184612c34565b92915050565b612c6781612bb2565b82525050565b6000602082019050612c826000830184612c5e565b92915050565b600080600060608486031215612ca157612ca0612b4f565b5b6000612caf86828701612b9d565b9350506020612cc086828701612b9d565b9250506040612cd186828701612bd3565b9150509250925092565b600060ff82169050919050565b612cf181612cdb565b82525050565b6000602082019050612d0c6000830184612ce8565b92915050565b6000819050919050565b612d2581612d12565b82525050565b6000602082019050612d406000830184612d1c565b92915050565b600060208284031215612d5c57612d5b612b4f565b5b6000612d6a84828501612bd3565b91505092915050565b600060208284031215612d8957612d88612b4f565b5b6000612d9784828501612b9d565b91505092915050565b612da981612b74565b82525050565b6000602082019050612dc46000830184612da0565b92915050565b600063ffffffff82169050919050565b612de381612dca565b82525050565b6000602082019050612dfe6000830184612dda565b92915050565b612e0d81612cdb565b8114612e1857600080fd5b50565b600081359050612e2a81612e04565b92915050565b612e3981612d12565b8114612e4457600080fd5b50565b600081359050612e5681612e30565b92915050565b60008060008060008060c08789031215612e7957612e78612b4f565b5b6000612e8789828a01612b9d565b9650506020612e9889828a01612bd3565b9550506040612ea989828a01612bd3565b9450506060612eba89828a01612e1b565b9350506080612ecb89828a01612e47565b92505060a0612edc89828a01612e47565b9150509295509295509295565b600080600080600080600060e0888a031215612f0857612f07612b4f565b5b6000612f168a828b01612b9d565b9750506020612f278a828b01612b9d565b9650506040612f388a828b01612bd3565b9550506060612f498a828b01612bd3565b9450506080612f5a8a828b01612e1b565b93505060a0612f6b8a828b01612e47565b92505060c0612f7c8a828b01612e47565b91505092959891949750929550565b60008060408385031215612fa257612fa1612b4f565b5b6000612fb085828601612b9d565b9250506020612fc185828601612b9d565b9150509250929050565b612fd481612dca565b8114612fdf57600080fd5b50565b600081359050612ff181612fcb565b92915050565b6000806040838503121561300e5761300d612b4f565b5b600061301c85828601612b9d565b925050602061302d85828601612fe2565b9150509250929050565b61304081612dca565b82525050565b60007bffffffffffffffffffffffffffffffffffffffffffffffffffffffff82169050919050565b61307781613046565b82525050565b6040820160008201516130936000850182613037565b5060208201516130a6602085018261306e565b50505050565b60006040820190506130c1600083018461307d565b92915050565b7f4e487b7100000000000000000000000000000000000000000000000000000000600052602260045260246000fd5b6000600282049050600182168061310e57607f821691505b602082108103613121576131206130c7565b5b50919050565b7f4e487b7100000000000000000000000000000000000000000000000000000000600052601160045260246000fd5b600061316182612bb2565b915061316c83612bb2565b925082820190508082111561318457613183613127565b5b92915050565b7f4552433230566f7465733a20626c6f636b206e6f7420796574206d696e656400600082015250565b60006131c0601f83612aa8565b91506131cb8261318a565b602082019050919050565b600060208201905081810360008301526131ef816131b3565b9050919050565b600061320182612bb2565b915061320c83612bb2565b925082820390508181111561322457613223613127565b5b92915050565b7f4e487b7100000000000000000000000000000000000000000000000000000000600052603260045260246000fd5b7f45524332303a2064656372656173656420616c6c6f77616e63652062656c6f7760008201527f207a65726f000000000000000000000000000000000000000000000000000000602082015250565b60006132b5602583612aa8565b91506132c082613259565b604082019050919050565b600060208201905081810360008301526132e4816132a8565b9050919050565b7f4552433230566f7465733a207369676e61747572652065787069726564000000600082015250565b6000613321601d83612aa8565b915061332c826132eb565b602082019050919050565b6000602082019050818103600083015261335081613314565b9050919050565b600060808201905061336c6000830187612d1c565b6133796020830186612da0565b6133866040830185612c5e565b6133936060830184612c5e565b95945050505050565b7f4552433230566f7465733a20696e76616c6964206e6f6e636500000000000000600082015250565b60006133d2601983612aa8565b91506133dd8261339c565b602082019050919050565b60006020820190508181036000830152613401816133c5565b9050919050565b7f45524332305065726d69743a206578706972656420646561646c696e65000000600082015250565b600061343e601d83612aa8565b915061344982613408565b602082019050919050565b6000602082019050818103600083015261346d81613431565b9050919050565b600060c0820190506134896000830189612d1c565b6134966020830188612da0565b6134a36040830187612da0565b6134b06060830186612c5e565b6134bd6080830185612c5e565b6134ca60a0830184612c5e565b979650505050505050565b7f45524332305065726d69743a20696e76616c6964207369676e61747572650000600082015250565b600061350b601e83612aa8565b9150613516826134d5565b602082019050919050565b6000602082019050818103600083015261353a816134fe565b9050919050565b7f4f776e61626c653a206e6577206f776e657220697320746865207a65726f206160008201527f6464726573730000000000000000000000000000000000000000000000000000602082015250565b600061359d602683612aa8565b91506135a882613541565b604082019050919050565b600060208201905081810360008301526135cc81613590565b9050919050565b7f45524332303a20617070726f76652066726f6d20746865207a65726f2061646460008201527f7265737300000000000000000000000000000000000000000000000000000000602082015250565b600061362f602483612aa8565b915061363a826135d3565b604082019050919050565b6000602082019050818103600083015261365e81613622565b9050919050565b7f45524332303a20617070726f766520746f20746865207a65726f20616464726560008201527f7373000000000000000000000000000000000000000000000000000000000000602082015250565b60006136c1602283612aa8565b91506136cc82613665565b604082019050919050565b600060208201905081810360008301526136f0816136b4565b9050919050565b7f45524332303a20696e73756666696369656e7420616c6c6f77616e6365000000600082015250565b600061372d601d83612aa8565b9150613738826136f7565b602082019050919050565b6000602082019050818103600083015261375c81613720565b9050919050565b7f45524332303a207472616e736665722066726f6d20746865207a65726f20616460008201527f6472657373000000000000000000000000000000000000000000000000000000602082015250565b60006137bf602583612aa8565b91506137ca82613763565b604082019050919050565b600060208201905081810360008301526137ee816137b2565b9050919050565b7f45524332303a207472616e7366657220746f20746865207a65726f206164647260008201527f6573730000000000000000000000000000000000000000000000000000000000602082015250565b6000613851602383612aa8565b915061385c826137f5565b604082019050919050565b6000602082019050818103600083015261388081613844565b9050919050565b7f45524332303a207472616e7366657220616d6f756e742065786365656473206260008201527f616c616e63650000000000000000000000000000000000000000000000000000602082015250565b60006138e3602683612aa8565b91506138ee82613887565b604082019050919050565b60006020820190508181036000830152613912816138d6565b9050919050565b7f4f776e61626c653a2063616c6c6572206973206e6f7420746865206f776e6572600082015250565b600061394f602083612aa8565b915061395a82613919565b602082019050919050565b6000602082019050818103600083015261397e81613942565b9050919050565b7f53616665436173743a2076616c756520646f65736e27742066697420696e203360008201527f3220626974730000000000000000000000000000000000000000000000000000602082015250565b60006139e1602683612aa8565b91506139ec82613985565b604082019050919050565b60006020820190508181036000830152613a10816139d4565b9050919050565b600060a082019050613a2c6000830188612d1c565b613a396020830187612d1c565b613a466040830186612d1c565b613a536060830185612c5e565b613a606080830184612da0565b9695505050505050565b7f4e487b7100000000000000000000000000000000000000000000000000000000600052601260045260246000fd5b6000613aa482612bb2565b9150613aaf83612bb2565b925082613abf57613abe613a6a565b5b828204905092915050565b7f5061757361626c653a206e6f7420706175736564000000000000000000000000600082015250565b6000613b00601483612aa8565b9150613b0b82613aca565b602082019050919050565b60006020820190508181036000830152613b2f81613af3565b9050919050565b7f4552433230566f7465733a20746f74616c20737570706c79207269736b73206f60008201527f766572666c6f77696e6720766f74657300000000000000000000000000000000602082015250565b6000613b92603083612aa8565b9150613b9d82613b36565b604082019050919050565b60006020820190508181036000830152613bc181613b85565b9050919050565b6000604082019050613bdd6000830185612c5e565b613bea6020830184612c5e565b9392505050565b7f5061757361626c653a2070617573656400000000000000000000000000000000600082015250565b6000613c27601083612aa8565b9150613c3282613bf1565b602082019050919050565b60006020820190508181036000830152613c5681613c1a565b9050919050565b600081905092915050565b7f1901000000000000000000000000000000000000000000000000000000000000600082015250565b6000613c9e600283613c5d565b9150613ca982613c68565b600282019050919050565b6000819050919050565b613ccf613cca82612d12565b613cb4565b82525050565b6000613ce082613c91565b9150613cec8285613cbe565b602082019150613cfc8284613cbe565b6020820191508190509392505050565b6000608082019050613d216000830187612d1c565b613d2e6020830186612ce8565b613d3b6040830185612d1c565b613d486060830184612d1c565b95945050505050565b7f4e487b7100000000000000000000000000000000000000000000000000000000600052602160045260246000fd5b7f45434453413a20696e76616c6964207369676e61747572650000000000000000600082015250565b6000613db6601883612aa8565b9150613dc182613d80565b602082019050919050565b60006020820190508181036000830152613de581613da9565b9050919050565b7f45434453413a20696e76616c6964207369676e6174757265206c656e67746800600082015250565b6000613e22601f83612aa8565b9150613e2d82613dec565b602082019050919050565b60006020820190508181036000830152613e5181613e15565b9050919050565b7f45434453413a20696e76616c6964207369676e6174757265202773272076616c60008201527f7565000000000000000000000000000000000000000000000000000000000000602082015250565b6000613eb4602283612aa8565b9150613ebf82613e58565b604082019050919050565b60006020820190508181036000830152613ee381613ea7565b9050919050565b7f45434453413a20696e76616c6964207369676e6174757265202776272076616c60008201527f7565000000000000000000000000000000000000000000000000000000000000602082015250565b6000613f46602283612aa8565b9150613f5182613eea565b604082019050919050565b60006020820190508181036000830152613f7581613f39565b9050919050565b7f45524332303a206d696e7420746f20746865207a65726f206164647265737300600082015250565b6000613fb2601f83612aa8565b9150613fbd82613f7c565b602082019050919050565b60006020820190508181036000830152613fe181613fa5565b9050919050565b7f45524332303a206275726e2066726f6d20746865207a65726f2061646472657360008201527f7300000000000000000000000000000000000000000000000000000000000000602082015250565b6000614044602183612aa8565b915061404f82613fe8565b604082019050919050565b6000602082019050818103600083015261407381614037565b9050919050565b7f45524332303a206275726e20616d6f756e7420657863656564732062616c616e60008201527f6365000000000000000000000000000000000000000000000000000000000000602082015250565b60006140d6602283612aa8565b91506140e18261407a565b604082019050919050565b60006020820190508181036000830152614105816140c9565b9050919050565b7f53616665436173743a2076616c756520646f65736e27742066697420696e203260008201527f3234206269747300000000000000000000000000000000000000000000000000602082015250565b6000614168602783612aa8565b91506141738261410c565b604082019050919050565b600060208201905081810360008301526141978161415b565b905091905056fea2646970667358221220f783fe038845fc34d9b214e7cdfa5e8f4ae0e262606f9296b07eae55447dd8e664736f6c63430008110033a264697066735822122068b272f713d6d9039dc8bb38989752c47a6814ba663bbcf58fcb10229dd617a164736f6c63430008110033",
  "linkReferences": {},
  "deployedLinkReferences": {}
}