{
  "_format": "hh-sol-artifact-1",
  "contractName": "MyToken",
  "sourceName": "contracts/MyToken.sol",
  "abi": [
    {
      "inputs": [
        {
          "internalType": "string",
          "name": "_name",
          "type": "string"
        },
        {
          "internalType": "string",
          "name": "_symbol",
          "type": "string"
        }
      ],
      "stateMutability": "nonpayable",
      "type": "constructor"
    },
    {
      "anonymous": false,
      "inputs": [
        {
          "indexed": true,
          "internalType": "address",
          "name": "owner",
          "type": "address"
        },
        {
          "indexed": true,
          "internalType": "address",
          "name": "spender",
          "type": "address"
        },
        {
          "indexed": false,
          "internalType": "uint256",
          "name": "value",
          "type": "uint256"
        }
      ],
      "name": "Approval",
      "type": "event"
    },
    {
      "anonymous": false,
      "inputs": [
        {
          "indexed": true,
          "internalType": "address",
          "name": "delegator",
          "type": "address"
        },
        {
          "indexed": true,
          "internalType": "address",
          "name": "fromDelegate",
          "type": "address"
        },
        {
          "indexed": true,
          "internalType": "address",
          "name": "toDelegate",
          "type": "address"
        }
      ],
      "name": "DelegateChanged",
      "type": "event"
    },
    {
      "anonymous": false,
      "inputs": [
        {
          "indexed": true,
          "internalType": "address",
          "name": "delegate",
          "type": "address"
        },
        {
          "indexed": false,
          "internalType": "uint256",
          "name": "previousBalance",
          "type": "uint256"
        },
        {
          "indexed": false,
          "internalType": "uint256",
          "name": "newBalance",
          "type": "uint256"
        }
      ],
      "name": "DelegateVotesChanged",
      "type": "event"
    },
    {
      "anonymous": false,
      "inputs": [
        {
          "indexed": true,
          "internalType": "address",
          "name": "previousOwner",
          "type": "address"
        },
        {
          "indexed": true,
          "internalType": "address",
          "name": "newOwner",
          "type": "address"
        }
      ],
      "name": "OwnershipTransferred",
      "type": "event"
    },
    {
      "anonymous": false,
      "inputs": [
        {
          "indexed": false,
          "internalType": "address",
          "name": "account",
          "type": "address"
        }
      ],
      "name": "Paused",
      "type": "event"
    },
    {
      "anonymous": false,
      "inputs": [
        {
          "indexed": true,
          "internalType": "address",
          "name": "from",
          "type": "address"
        },
        {
          "indexed": true,
          "internalType": "address",
          "name": "to",
          "type": "address"
        },
        {
          "indexed": false,
          "internalType": "uint256",
          "name": "value",
          "type": "uint256"
        }
      ],
      "name": "Transfer",
      "type": "event"
    },
    {
      "anonymous": false,
      "inputs": [
        {
          "indexed": false,
          "internalType": "address",
          "name": "account",
          "type": "address"
        }
      ],
      "name": "Unpaused",
      "type": "event"
    },
    {
      "inputs": [],
      "name": "DOMAIN_SEPARATOR",
      "outputs": [
        {
          "internalType": "bytes32",
          "name": "",
          "type": "bytes32"
        }
      ],
      "stateMutability": "view",
      "type": "function"
    },
    {
      "inputs": [
        {
          "internalType": "address",
          "name": "owner",
          "type": "address"
        },
        {
          "internalType": "address",
          "name": "spender",
          "type": "address"
        }
      ],
      "name": "allowance",
      "outputs": [
        {
          "internalType": "uint256",
          "name": "",
          "type": "uint256"
        }
      ],
      "stateMutability": "view",
      "type": "function"
    },
    {
      "inputs": [
        {
          "internalType": "address",
          "name": "spender",
          "type": "address"
        },
        {
          "internalType": "uint256",
          "name": "amount",
          "type": "uint256"
        }
      ],
      "name": "approve",
      "outputs": [
        {
          "internalType": "bool",
          "name": "",
          "type": "bool"
        }
      ],
      "stateMutability": "nonpayable",
      "type": "function"
    },
    {
      "inputs": [
        {
          "internalType": "address",
          "name": "account",
          "type": "address"
        }
      ],
      "name": "balanceOf",
      "outputs": [
        {
          "internalType": "uint256",
          "name": "",
          "type": "uint256"
        }
      ],
      "stateMutability": "view",
      "type": "function"
    },
    {
      "inputs": [
        {
          "internalType": "uint256",
          "name": "amount",
          "type": "uint256"
        }
      ],
      "name": "burn",
      "outputs": [],
      "stateMutability": "nonpayable",
      "type": "function"
    },
    {
      "inputs": [
        {
          "internalType": "address",
          "name": "to",
          "type": "address"
        },
        {
          "internalType": "uint256",
          "name": "amount",
          "type": "uint256"
        }
      ],
      "name": "burn",
      "outputs": [],
      "stateMutability": "nonpayable",
      "type": "function"
    },
    {
      "inputs": [
        {
          "internalType": "address",
          "name": "account",
          "type": "address"
        },
        {
          "internalType": "uint256",
          "name": "amount",
          "type": "uint256"
        }
      ],
      "name": "burnFrom",
      "outputs": [],
      "stateMutability": "nonpayable",
      "type": "function"
    },
    {
      "inputs": [
        {
          "internalType": "address",
          "name": "account",
          "type": "address"
        },
        {
          "internalType": "uint32",
          "name": "pos",
          "type": "uint32"
        }
      ],
      "name": "checkpoints",
      "outputs": [
        {
          "components": [
            {
              "internalType": "uint32",
              "name": "fromBlock",
              "type": "uint32"
            },
            {
              "internalType": "uint224",
              "name": "votes",
              "type": "uint224"
            }
          ],
          "internalType": "struct ERC20Votes.Checkpoint",
          "name": "",
          "type": "tuple"
        }
      ],
      "stateMutability": "view",
      "type": "function"
    },
    {
      "inputs": [
        {
          "internalType": "address",
          "name": "to",
          "type": "address"
        },
        {
          "internalType": "uint256",
          "name": "amount",
          "type": "uint256"
        }
      ],
      "name": "claim",
      "outputs": [],
      "stateMutability": "nonpayable",
      "type": "function"
    },
    {
      "inputs": [],
      "name": "decimals",
      "outputs": [
        {
          "internalType": "uint8",
          "name": "",
          "type": "uint8"
        }
      ],
      "stateMutability": "view",
      "type": "function"
    },
    {
      "inputs": [
        {
          "internalType": "address",
          "name": "spender",
          "type": "address"
        },
        {
          "internalType": "uint256",
          "name": "subtractedValue",
          "type": "uint256"
        }
      ],
      "name": "decreaseAllowance",
      "outputs": [
        {
          "internalType": "bool",
          "name": "",
          "type": "bool"
        }
      ],
      "stateMutability": "nonpayable",
      "type": "function"
    },
    {
      "inputs": [
        {
          "internalType": "address",
          "name": "delegatee",
          "type": "address"
        }
      ],
      "name": "delegate",
      "outputs": [],
      "stateMutability": "nonpayable",
      "type": "function"
    },
    {
      "inputs": [
        {
          "internalType": "address",
          "name": "delegatee",
          "type": "address"
        },
        {
          "internalType": "uint256",
          "name": "nonce",
          "type": "uint256"
        },
        {
          "internalType": "uint256",
          "name": "expiry",
          "type": "uint256"
        },
        {
          "internalType": "uint8",
          "name": "v",
          "type": "uint8"
        },
        {
          "internalType": "bytes32",
          "name": "r",
          "type": "bytes32"
        },
        {
          "internalType": "bytes32",
          "name": "s",
          "type": "bytes32"
        }
      ],
      "name": "delegateBySig",
      "outputs": [],
      "stateMutability": "nonpayable",
      "type": "function"
    },
    {
      "inputs": [
        {
          "internalType": "address",
          "name": "account",
          "type": "address"
        }
      ],
      "name": "delegates",
      "outputs": [
        {
          "internalType": "address",
          "name": "",
          "type": "address"
        }
      ],
      "stateMutability": "view",
      "type": "function"
    },
    {
      "inputs": [
        {
          "internalType": "uint256",
          "name": "blockNumber",
          "type": "uint256"
        }
      ],
      "name": "getPastTotalSupply",
      "outputs": [
        {
          "internalType": "uint256",
          "name": "",
          "type": "uint256"
        }
      ],
      "stateMutability": "view",
      "type": "function"
    },
    {
      "inputs": [
        {
          "internalType": "address",
          "name": "account",
          "type": "address"
        },
        {
          "internalType": "uint256",
          "name": "blockNumber",
          "type": "uint256"
        }
      ],
      "name": "getPastVotes",
      "outputs": [
        {
          "internalType": "uint256",
          "name": "",
          "type": "uint256"
        }
      ],
      "stateMutability": "view",
      "type": "function"
    },
    {
      "inputs": [
        {
          "internalType": "address",
          "name": "account",
          "type": "address"
        }
      ],
      "name": "getVotes",
      "outputs": [
        {
          "internalType": "uint256",
          "name": "",
          "type": "uint256"
        }
      ],
      "stateMutability": "view",
      "type": "function"
    },
    {
      "inputs": [
        {
          "internalType": "address",
          "name": "spender",
          "type": "address"
        },
        {
          "internalType": "uint256",
          "name": "addedValue",
          "type": "uint256"
        }
      ],
      "name": "increaseAllowance",
      "outputs": [
        {
          "internalType": "bool",
          "name": "",
          "type": "bool"
        }
      ],
      "stateMutability": "nonpayable",
      "type": "function"
    },
    {
      "inputs": [
        {
          "internalType": "address",
          "name": "to",
          "type": "address"
        },
        {
          "internalType": "uint256",
          "name": "amount",
          "type": "uint256"
        }
      ],
      "name": "mint",
      "outputs": [],
      "stateMutability": "nonpayable",
      "type": "function"
    },
    {
      "inputs": [],
      "name": "name",
      "outputs": [
        {
          "internalType": "string",
          "name": "",
          "type": "string"
        }
      ],
      "stateMutability": "view",
      "type": "function"
    },
    {
      "inputs": [
        {
          "internalType": "address",
          "name": "owner",
          "type": "address"
        }
      ],
      "name": "nonces",
      "outputs": [
        {
          "internalType": "uint256",
          "name": "",
          "type": "uint256"
        }
      ],
      "stateMutability": "view",
      "type": "function"
    },
    {
      "inputs": [
        {
          "internalType": "address",
          "name": "account",
          "type": "address"
        }
      ],
      "name": "numCheckpoints",
      "outputs": [
        {
          "internalType": "uint32",
          "name": "",
          "type": "uint32"
        }
      ],
      "stateMutability": "view",
      "type": "function"
    },
    {
      "inputs": [],
      "name": "owner",
      "outputs": [
        {
          "internalType": "address",
          "name": "",
          "type": "address"
        }
      ],
      "stateMutability": "view",
      "type": "function"
    },
    {
      "inputs": [],
      "name": "pause",
      "outputs": [],
      "stateMutability": "nonpayable",
      "type": "function"
    },
    {
      "inputs": [],
      "name": "paused",
      "outputs": [
        {
          "internalType": "bool",
          "name": "",
          "type": "bool"
        }
      ],
      "stateMutability": "view",
      "type": "function"
    },
    {
      "inputs": [
        {
          "internalType": "address",
          "name": "owner",
          "type": "address"
        },
        {
          "internalType": "address",
          "name": "spender",
          "type": "address"
        },
        {
          "internalType": "uint256",
          "name": "value",
          "type": "uint256"
        },
        {
          "internalType": "uint256",
          "name": "deadline",
          "type": "uint256"
        },
        {
          "internalType": "uint8",
          "name": "v",
          "type": "uint8"
        },
        {
          "internalType": "bytes32",
          "name": "r",
          "type": "bytes32"
        },
        {
          "internalType": "bytes32",
          "name": "s",
          "type": "bytes32"
        }
      ],
      "name": "permit",
      "outputs": [],
      "stateMutability": "nonpayable",
      "type": "function"
    },
    {
      "inputs": [],
      "name": "renounceOwnership",
      "outputs": [],
      "stateMutability": "nonpayable",
      "type": "function"
    },
    {
      "inputs": [],
      "name": "symbol",
      "outputs": [
        {
          "internalType": "string",
          "name": "",
          "type": "string"
        }
      ],
      "stateMutability": "view",
      "type": "function"
    },
    {
      "inputs": [],
      "name": "totalSupply",
      "outputs": [
        {
          "internalType": "uint256",
          "name": "",
          "type": "uint256"
        }
      ],
      "stateMutability": "view",
      "type": "function"
    },
    {
      "inputs": [
        {
          "internalType": "address",
          "name": "to",
          "type": "address"
        },
        {
          "internalType": "uint256",
          "name": "amount",
          "type": "uint256"
        }
      ],
      "name": "transfer",
      "outputs": [
        {
          "internalType": "bool",
          "name": "",
          "type": "bool"
        }
      ],
      "stateMutability": "nonpayable",
      "type": "function"
    },
    {
      "inputs": [
        {
          "internalType": "address",
          "name": "from",
          "type": "address"
        },
        {
          "internalType": "address",
          "name": "to",
          "type": "address"
        },
        {
          "internalType": "uint256",
          "name": "amount",
          "type": "uint256"
        }
      ],
      "name": "transferFrom",
      "outputs": [
        {
          "internalType": "bool",
          "name": "",
          "type": "bool"
        }
      ],
      "stateMutability": "nonpayable",
      "type": "function"
    },
    {
      "inputs": [
        {
          "internalType": "address",
          "name": "newOwner",
          "type": "address"
        }
      ],
      "name": "transferOwnership",
      "outputs": [],
      "stateMutability": "nonpayable",
      "type": "function"
    },
    {
      "inputs": [],
      "name": "unpause",
      "outputs": [],
      "stateMutability": "nonpayable",
      "type": "function"
    }
  ],
  "bytecode": "0x6101406040523480156200001257600080fd5b5060405162004af038038062004af083398181016040528101906200003891906200044f565b81806040518060400160405280600181526020017f3100000000000000000000000000000000000000000000000000000000000000815250848481600390816200008391906200071f565b5080600490816200009591906200071f565b5050506000600560006101000a81548160ff021916908315150217905550620000d3620000c7620001b260201b60201c565b620001ba60201b60201c565b60008280519060200120905060008280519060200120905060007f8b73c3c69bb8fe3d512ecc4cf759cc79239f7b179b0ffacaa9a75d522b39400f90508260e081815250508161010081815250504660a081815250506200013c8184846200028060201b60201c565b608081815250503073ffffffffffffffffffffffffffffffffffffffff1660c08173ffffffffffffffffffffffffffffffffffffffff168152505080610120818152505050505050505081600b90816200019791906200071f565b5080600c9081620001a991906200071f565b505050620008d4565b600033905090565b6000600560019054906101000a900473ffffffffffffffffffffffffffffffffffffffff16905081600560016101000a81548173ffffffffffffffffffffffffffffffffffffffff021916908373ffffffffffffffffffffffffffffffffffffffff1602179055508173ffffffffffffffffffffffffffffffffffffffff168173ffffffffffffffffffffffffffffffffffffffff167f8be0079c531659141344cd1fd0a4f28419497f9722a3daafe3b4186f6b6457e060405160405180910390a35050565b600083838346306040516020016200029d95949392919062000877565b6040516020818303038152906040528051906020012090509392505050565b6000604051905090565b600080fd5b600080fd5b600080fd5b600080fd5b6000601f19601f8301169050919050565b7f4e487b7100000000000000000000000000000000000000000000000000000000600052604160045260246000fd5b6200032582620002da565b810181811067ffffffffffffffff82111715620003475762000346620002eb565b5b80604052505050565b60006200035c620002bc565b90506200036a82826200031a565b919050565b600067ffffffffffffffff8211156200038d576200038c620002eb565b5b6200039882620002da565b9050602081019050919050565b60005b83811015620003c5578082015181840152602081019050620003a8565b60008484015250505050565b6000620003e8620003e2846200036f565b62000350565b905082815260208101848484011115620004075762000406620002d5565b5b62000414848285620003a5565b509392505050565b600082601f830112620004345762000433620002d0565b5b815162000446848260208601620003d1565b91505092915050565b60008060408385031215620004695762000468620002c6565b5b600083015167ffffffffffffffff8111156200048a5762000489620002cb565b5b62000498858286016200041c565b925050602083015167ffffffffffffffff811115620004bc57620004bb620002cb565b5b620004ca858286016200041c565b9150509250929050565b600081519050919050565b7f4e487b7100000000000000000000000000000000000000000000000000000000600052602260045260246000fd5b600060028204905060018216806200052757607f821691505b6020821081036200053d576200053c620004df565b5b50919050565b60008190508160005260206000209050919050565b60006020601f8301049050919050565b600082821b905092915050565b600060088302620005a77fffffffffffffffffffffffffffffffffffffffffffffffffffffffffffffffff8262000568565b620005b3868362000568565b95508019841693508086168417925050509392505050565b6000819050919050565b6000819050919050565b600062000600620005fa620005f484620005cb565b620005d5565b620005cb565b9050919050565b6000819050919050565b6200061c83620005df565b620006346200062b8262000607565b84845462000575565b825550505050565b600090565b6200064b6200063c565b6200065881848462000611565b505050565b5b8181101562000680576200067460008262000641565b6001810190506200065e565b5050565b601f821115620006cf57620006998162000543565b620006a48462000558565b81016020851015620006b4578190505b620006cc620006c38562000558565b8301826200065d565b50505b505050565b600082821c905092915050565b6000620006f460001984600802620006d4565b1980831691505092915050565b60006200070f8383620006e1565b9150826002028217905092915050565b6200072a82620004d4565b67ffffffffffffffff811115620007465762000745620002eb565b5b6200075282546200050e565b6200075f82828562000684565b600060209050601f83116001811462000797576000841562000782578287015190505b6200078e858262000701565b865550620007fe565b601f198416620007a78662000543565b60005b82811015620007d157848901518255600182019150602085019450602081019050620007aa565b86831015620007f15784890151620007ed601f891682620006e1565b8355505b6001600288020188555050505b505050505050565b6000819050919050565b6200081b8162000806565b82525050565b6200082c81620005cb565b82525050565b600073ffffffffffffffffffffffffffffffffffffffff82169050919050565b60006200085f8262000832565b9050919050565b620008718162000852565b82525050565b600060a0820190506200088e600083018862000810565b6200089d602083018762000810565b620008ac604083018662000810565b620008bb606083018562000821565b620008ca608083018462000866565b9695505050505050565b60805160a05160c05160e05161010051610120516141cc62000924600039600061171e015260006117600152600061173f01526000611674015260006116ca015260006116f301526141cc6000f3fe608060405234801561001057600080fd5b50600436106101fb5760003560e01c8063715018a61161011a5780639dc29fac116100ad578063c3cda5201161007c578063c3cda520146105d8578063d505accf146105f4578063dd62ed3e14610610578063f1127ed814610640578063f2fde38b14610670576101fb565b80639dc29fac14610540578063a457c2d71461055c578063a9059cbb1461058c578063aad3ec96146105bc576101fb565b80638da5cb5b116100e95780638da5cb5b146104a45780638e539e8c146104c257806395d89b41146104f25780639ab24eb014610510576101fb565b8063715018a61461044457806379cc67901461044e5780637ecebe001461046a5780638456cb591461049a576101fb565b80633f4ba83a116101925780635c19a95c116101615780635c19a95c146103aa5780635c975abb146103c65780636fcfff45146103e457806370a0823114610414576101fb565b80633f4ba83a1461033857806340c10f191461034257806342966c681461035e578063587cde1e1461037a576101fb565b8063313ce567116101ce578063313ce5671461029c5780633644e515146102ba57806339509351146102d85780633a46b1a814610308576101fb565b806306fdde0314610200578063095ea7b31461021e57806318160ddd1461024e57806323b872dd1461026c575b600080fd5b61020861068c565b6040516102159190612b25565b60405180910390f35b61023860048036038101906102339190612be0565b61071e565b6040516102459190612c3b565b60405180910390f35b610256610741565b6040516102639190612c65565b60405180910390f35b61028660048036038101906102819190612c80565b61074b565b6040516102939190612c3b565b60405180910390f35b6102a461077a565b6040516102b19190612cef565b60405180910390f35b6102c261077f565b6040516102cf9190612d23565b60405180910390f35b6102f260048036038101906102ed9190612be0565b61078e565b6040516102ff9190612c3b565b60405180910390f35b610322600480360381019061031d9190612be0565b6107c5565b60405161032f9190612c65565b60405180910390f35b610340610859565b005b61035c60048036038101906103579190612be0565b61086b565b005b61037860048036038101906103739190612d3e565b610879565b005b610394600480360381019061038f9190612d6b565b61088d565b6040516103a19190612da7565b60405180910390f35b6103c460048036038101906103bf9190612d6b565b6108f6565b005b6103ce61090a565b6040516103db9190612c3b565b60405180910390f35b6103fe60048036038101906103f99190612d6b565b610921565b60405161040b9190612de1565b60405180910390f35b61042e60048036038101906104299190612d6b565b610975565b60405161043b9190612c65565b60405180910390f35b61044c6109bd565b005b61046860048036038101906104639190612be0565b6109d1565b005b610484600480360381019061047f9190612d6b565b6109f1565b6040516104919190612c65565b60405180910390f35b6104a2610a41565b005b6104ac610a53565b6040516104b99190612da7565b60405180910390f35b6104dc60048036038101906104d79190612d3e565b610a7d565b6040516104e99190612c65565b60405180910390f35b6104fa610ad3565b6040516105079190612b25565b60405180910390f35b61052a60048036038101906105259190612d6b565b610b65565b6040516105379190612c65565b60405180910390f35b61055a60048036038101906105559190612be0565b610c76565b005b61057660048036038101906105719190612be0565b610c8c565b6040516105839190612c3b565b60405180910390f35b6105a660048036038101906105a19190612be0565b610d03565b6040516105b39190612c3b565b60405180910390f35b6105d660048036038101906105d19190612be0565b610d26565b005b6105f260048036038101906105ed9190612e54565b610d34565b005b61060e60048036038101906106099190612ee1565b610e38565b005b61062a60048036038101906106259190612f83565b610f7a565b6040516106379190612c65565b60405180910390f35b61065a60048036038101906106559190612fef565b611001565b60405161066791906130a4565b60405180910390f35b61068a60048036038101906106859190612d6b565b611111565b005b60606003805461069b906130ee565b80601f01602080910402602001604051908101604052809291908181526020018280546106c7906130ee565b80156107145780601f106106e957610100808354040283529160200191610714565b820191906000526020600020905b8154815290600101906020018083116106f757829003601f168201915b5050505050905090565b600080610729611194565b905061073681858561119c565b600191505092915050565b6000600254905090565b600080610756611194565b9050610763858285611365565b61076e8585856113f1565b60019150509392505050565b600090565b6000610789611670565b905090565b600080610799611194565b90506107ba8185856107ab8589610f7a565b6107b5919061314e565b61119c565b600191505092915050565b6000438210610809576040517f08c379a0000000000000000000000000000000000000000000000000000000008152600401610800906131ce565b60405180910390fd5b610851600960008573ffffffffffffffffffffffffffffffffffffffff1673ffffffffffffffffffffffffffffffffffffffff1681526020019081526020016000208361178a565b905092915050565b610861611896565b610869611914565b565b6108758282611977565b5050565b61088a610884611194565b82611985565b50565b6000600860008373ffffffffffffffffffffffffffffffffffffffff1673ffffffffffffffffffffffffffffffffffffffff16815260200190815260200160002060009054906101000a900473ffffffffffffffffffffffffffffffffffffffff169050919050565b610907610901611194565b82611993565b50565b6000600560009054906101000a900460ff16905090565b600061096e600960008473ffffffffffffffffffffffffffffffffffffffff1673ffffffffffffffffffffffffffffffffffffffff16815260200190815260200160002080549050611aad565b9050919050565b60008060008373ffffffffffffffffffffffffffffffffffffffff1673ffffffffffffffffffffffffffffffffffffffff168152602001908152602001600020549050919050565b6109c5611896565b6109cf6000611b00565b565b6109e3826109dd611194565b83611365565b6109ed8282611985565b5050565b6000610a3a600660008473ffffffffffffffffffffffffffffffffffffffff1673ffffffffffffffffffffffffffffffffffffffff168152602001908152602001600020611bc6565b9050919050565b610a49611896565b610a51611bd4565b565b6000600560019054906101000a900473ffffffffffffffffffffffffffffffffffffffff16905090565b6000438210610ac1576040517f08c379a0000000000000000000000000000000000000000000000000000000008152600401610ab8906131ce565b60405180910390fd5b610acc600a8361178a565b9050919050565b606060048054610ae2906130ee565b80601f0160208091040260200160405190810160405280929190818152602001828054610b0e906130ee565b8015610b5b5780601f10610b3057610100808354040283529160200191610b5b565b820191906000526020600020905b815481529060010190602001808311610b3e57829003601f168201915b5050505050905090565b600080600960008473ffffffffffffffffffffffffffffffffffffffff1673ffffffffffffffffffffffffffffffffffffffff16815260200190815260200160002080549050905060008114610c4d57600960008473ffffffffffffffffffffffffffffffffffffffff1673ffffffffffffffffffffffffffffffffffffffff168152602001908152602001600020600182610c0191906131ee565b81548110610c1257610c11613222565b5b9060005260206000200160000160049054906101000a90047bffffffffffffffffffffffffffffffffffffffffffffffffffffffff16610c50565b60005b7bffffffffffffffffffffffffffffffffffffffffffffffffffffffff16915050919050565b610c7e611896565b610c888282611985565b5050565b600080610c97611194565b90506000610ca58286610f7a565b905083811015610cea576040517f08c379a0000000000000000000000000000000000000000000000000000000008152600401610ce1906132c3565b60405180910390fd5b610cf7828686840361119c565b60019250505092915050565b600080610d0e611194565b9050610d1b8185856113f1565b600191505092915050565b610d308282611977565b5050565b83421115610d77576040517f08c379a0000000000000000000000000000000000000000000000000000000008152600401610d6e9061332f565b60405180910390fd5b6000610dd9610dd17fe48329057bfd03d55e49b547132e39cffd9c1820ad7b9d4c5307691425d15adf898989604051602001610db6949392919061334f565b60405160208183030381529060405280519060200120611c37565b858585611c51565b9050610de481611c7c565b8614610e25576040517f08c379a0000000000000000000000000000000000000000000000000000000008152600401610e1c906133e0565b60405180910390fd5b610e2f8188611993565b50505050505050565b83421115610e7b576040517f08c379a0000000000000000000000000000000000000000000000000000000008152600401610e729061344c565b60405180910390fd5b60007f6e71edae12b1b97f4d1f60370fef10105fa2faae0126114a169c64845d6126c9888888610eaa8c611c7c565b89604051602001610ec09695949392919061346c565b6040516020818303038152906040528051906020012090506000610ee382611c37565b90506000610ef382878787611c51565b90508973ffffffffffffffffffffffffffffffffffffffff168173ffffffffffffffffffffffffffffffffffffffff1614610f63576040517f08c379a0000000000000000000000000000000000000000000000000000000008152600401610f5a90613519565b60405180910390fd5b610f6e8a8a8a61119c565b50505050505050505050565b6000600160008473ffffffffffffffffffffffffffffffffffffffff1673ffffffffffffffffffffffffffffffffffffffff16815260200190815260200160002060008373ffffffffffffffffffffffffffffffffffffffff1673ffffffffffffffffffffffffffffffffffffffff16815260200190815260200160002054905092915050565b611009612a57565b600960008473ffffffffffffffffffffffffffffffffffffffff1673ffffffffffffffffffffffffffffffffffffffff1681526020019081526020016000208263ffffffff16815481106110605761105f613222565b5b906000526020600020016040518060400160405290816000820160009054906101000a900463ffffffff1663ffffffff1663ffffffff1681526020016000820160049054906101000a90047bffffffffffffffffffffffffffffffffffffffffffffffffffffffff167bffffffffffffffffffffffffffffffffffffffffffffffffffffffff167bffffffffffffffffffffffffffffffffffffffffffffffffffffffff1681525050905092915050565b611119611896565b600073ffffffffffffffffffffffffffffffffffffffff168173ffffffffffffffffffffffffffffffffffffffff1603611188576040517f08c379a000000000000000000000000000000000000000000000000000000000815260040161117f906135ab565b60405180910390fd5b61119181611b00565b50565b600033905090565b600073ffffffffffffffffffffffffffffffffffffffff168373ffffffffffffffffffffffffffffffffffffffff160361120b576040517f08c379a00000000000000000000000000000000000000000000000000000000081526004016112029061363d565b60405180910390fd5b600073ffffffffffffffffffffffffffffffffffffffff168273ffffffffffffffffffffffffffffffffffffffff160361127a576040517f08c379a0000000000000000000000000000000000000000000000000000000008152600401611271906136cf565b60405180910390fd5b80600160008573ffffffffffffffffffffffffffffffffffffffff1673ffffffffffffffffffffffffffffffffffffffff16815260200190815260200160002060008473ffffffffffffffffffffffffffffffffffffffff1673ffffffffffffffffffffffffffffffffffffffff168152602001908152602001600020819055508173ffffffffffffffffffffffffffffffffffffffff168373ffffffffffffffffffffffffffffffffffffffff167f8c5be1e5ebec7d5bd14f71427d1e84f3dd0314c0f7b2291e5b200ac8c7c3b925836040516113589190612c65565b60405180910390a3505050565b60006113718484610f7a565b90507fffffffffffffffffffffffffffffffffffffffffffffffffffffffffffffffff81146113eb57818110156113dd576040517f08c379a00000000000000000000000000000000000000000000000000000000081526004016113d49061373b565b60405180910390fd5b6113ea848484840361119c565b5b50505050565b600073ffffffffffffffffffffffffffffffffffffffff168373ffffffffffffffffffffffffffffffffffffffff1603611460576040517f08c379a0000000000000000000000000000000000000000000000000000000008152600401611457906137cd565b60405180910390fd5b600073ffffffffffffffffffffffffffffffffffffffff168273ffffffffffffffffffffffffffffffffffffffff16036114cf576040517f08c379a00000000000000000000000000000000000000000000000000000000081526004016114c69061385f565b60405180910390fd5b6114da838383611cda565b60008060008573ffffffffffffffffffffffffffffffffffffffff1673ffffffffffffffffffffffffffffffffffffffff16815260200190815260200160002054905081811015611560576040517f08c379a0000000000000000000000000000000000000000000000000000000008152600401611557906138f1565b60405180910390fd5b8181036000808673ffffffffffffffffffffffffffffffffffffffff1673ffffffffffffffffffffffffffffffffffffffff16815260200190815260200160002081905550816000808573ffffffffffffffffffffffffffffffffffffffff1673ffffffffffffffffffffffffffffffffffffffff16815260200190815260200160002060008282546115f3919061314e565b925050819055508273ffffffffffffffffffffffffffffffffffffffff168473ffffffffffffffffffffffffffffffffffffffff167fddf252ad1be2c89b69c2b068fc378daa952ba7f163c4a11628f55a4df523b3ef846040516116579190612c65565b60405180910390a361166a848484611cf2565b50505050565b60007f000000000000000000000000000000000000000000000000000000000000000073ffffffffffffffffffffffffffffffffffffffff163073ffffffffffffffffffffffffffffffffffffffff161480156116ec57507f000000000000000000000000000000000000000000000000000000000000000046145b15611719577f00000000000000000000000000000000000000000000000000000000000000009050611787565b6117847f00000000000000000000000000000000000000000000000000000000000000007f00000000000000000000000000000000000000000000000000000000000000007f0000000000000000000000000000000000000000000000000000000000000000611d02565b90505b90565b6000808380549050905060005b818110156118095760006117ab8284611d3c565b9050848682815481106117c1576117c0613222565b5b9060005260206000200160000160009054906101000a900463ffffffff1663ffffffff1611156117f357809250611803565b600181611800919061314e565b91505b50611797565b6000821461186b578460018361181f91906131ee565b815481106118305761182f613222565b5b9060005260206000200160000160049054906101000a90047bffffffffffffffffffffffffffffffffffffffffffffffffffffffff1661186e565b60005b7bffffffffffffffffffffffffffffffffffffffffffffffffffffffff169250505092915050565b61189e611194565b73ffffffffffffffffffffffffffffffffffffffff166118bc610a53565b73ffffffffffffffffffffffffffffffffffffffff1614611912576040517f08c379a00000000000000000000000000000000000000000000000000000000081526004016119099061395d565b60405180910390fd5b565b61191c611d62565b6000600560006101000a81548160ff0219169083151502179055507f5db9ee0a495bf2e6ff9c91a7834c1ba4fdd244a5e8aa4e537bd38aeae4b073aa611960611194565b60405161196d9190612da7565b60405180910390a1565b6119818282611dab565b5050565b61198f8282611e38565b5050565b600061199e8361088d565b905060006119ab84610975565b905082600860008673ffffffffffffffffffffffffffffffffffffffff1673ffffffffffffffffffffffffffffffffffffffff16815260200190815260200160002060006101000a81548173ffffffffffffffffffffffffffffffffffffffff021916908373ffffffffffffffffffffffffffffffffffffffff1602179055508273ffffffffffffffffffffffffffffffffffffffff168273ffffffffffffffffffffffffffffffffffffffff168573ffffffffffffffffffffffffffffffffffffffff167f3134e8a2e6d97e929a7e54011ea5485d7d196dd5f0ba4d4ef95803e8e3fc257f60405160405180910390a4611aa7828483611e56565b50505050565b600063ffffffff8016821115611af8576040517f08c379a0000000000000000000000000000000000000000000000000000000008152600401611aef906139ef565b60405180910390fd5b819050919050565b6000600560019054906101000a900473ffffffffffffffffffffffffffffffffffffffff16905081600560016101000a81548173ffffffffffffffffffffffffffffffffffffffff021916908373ffffffffffffffffffffffffffffffffffffffff1602179055508173ffffffffffffffffffffffffffffffffffffffff168173ffffffffffffffffffffffffffffffffffffffff167f8be0079c531659141344cd1fd0a4f28419497f9722a3daafe3b4186f6b6457e060405160405180910390a35050565b600081600001549050919050565b611bdc61204f565b6001600560006101000a81548160ff0219169083151502179055507f62e78cea01bee320cd4e420270b5ea74000d11b0c9f74754ebdbfc544b05a258611c20611194565b604051611c2d9190612da7565b60405180910390a1565b6000611c4a611c44611670565b83612099565b9050919050565b6000806000611c62878787876120cc565b91509150611c6f816121d8565b8192505050949350505050565b600080600660008473ffffffffffffffffffffffffffffffffffffffff1673ffffffffffffffffffffffffffffffffffffffff1681526020019081526020016000209050611cc981611bc6565b9150611cd4816123a4565b50919050565b611ce261204f565b611ced8383836123ba565b505050565b611cfd8383836123bf565b505050565b60008383834630604051602001611d1d959493929190613a0f565b6040516020818303038152906040528051906020012090509392505050565b60006002828418611d4d9190613a91565b828416611d5a919061314e565b905092915050565b611d6a61090a565b611da9576040517f08c379a0000000000000000000000000000000000000000000000000000000008152600401611da090613b0e565b60405180910390fd5b565b611db582826123ea565b611dbd612549565b7bffffffffffffffffffffffffffffffffffffffffffffffffffffffff16611de3610741565b1115611e24576040517f08c379a0000000000000000000000000000000000000000000000000000000008152600401611e1b90613ba0565b60405180910390fd5b611e32600a61256d83612583565b50505050565b611e4282826127fb565b611e50600a6129d183612583565b50505050565b8173ffffffffffffffffffffffffffffffffffffffff168373ffffffffffffffffffffffffffffffffffffffff1614158015611e925750600081115b1561204a57600073ffffffffffffffffffffffffffffffffffffffff168373ffffffffffffffffffffffffffffffffffffffff1614611f7057600080611f19600960008773ffffffffffffffffffffffffffffffffffffffff1673ffffffffffffffffffffffffffffffffffffffff1681526020019081526020016000206129d185612583565b915091508473ffffffffffffffffffffffffffffffffffffffff167fdec2bacdd2f05b59de34da9b523dff8be42e5e38e818c82fdb0bae774387a7248383604051611f65929190613bc0565b60405180910390a250505b600073ffffffffffffffffffffffffffffffffffffffff168273ffffffffffffffffffffffffffffffffffffffff161461204957600080611ff2600960008673ffffffffffffffffffffffffffffffffffffffff1673ffffffffffffffffffffffffffffffffffffffff16815260200190815260200160002061256d85612583565b915091508373ffffffffffffffffffffffffffffffffffffffff167fdec2bacdd2f05b59de34da9b523dff8be42e5e38e818c82fdb0bae774387a724838360405161203e929190613bc0565b60405180910390a250505b5b505050565b61205761090a565b15612097576040517f08c379a000000000000000000000000000000000000000000000000000000000815260040161208e90613c35565b60405180910390fd5b565b600082826040516020016120ae929190613ccd565b60405160208183030381529060405280519060200120905092915050565b6000807f7fffffffffffffffffffffffffffffff5d576e7357a4501ddfe92f46681b20a08360001c11156121075760006003915091506121cf565b601b8560ff161415801561211f5750601c8560ff1614155b156121315760006004915091506121cf565b6000600187878787604051600081526020016040526040516121569493929190613d04565b6020604051602081039080840390855afa158015612178573d6000803e3d6000fd5b505050602060405103519050600073ffffffffffffffffffffffffffffffffffffffff168173ffffffffffffffffffffffffffffffffffffffff16036121c6576000600192509250506121cf565b80600092509250505b94509492505050565b600060048111156121ec576121eb613d49565b5b8160048111156121ff576121fe613d49565b5b03156123a1576001600481111561221957612218613d49565b5b81600481111561222c5761222b613d49565b5b0361226c576040517f08c379a000000000000000000000000000000000000000000000000000000000815260040161226390613dc4565b60405180910390fd5b600260048111156122805761227f613d49565b5b81600481111561229357612292613d49565b5b036122d3576040517f08c379a00000000000000000000000000000000000000000000000000000000081526004016122ca90613e30565b60405180910390fd5b600360048111156122e7576122e6613d49565b5b8160048111156122fa576122f9613d49565b5b0361233a576040517f08c379a000000000000000000000000000000000000000000000000000000000815260040161233190613ec2565b60405180910390fd5b60048081111561234d5761234c613d49565b5b8160048111156123605761235f613d49565b5b036123a0576040517f08c379a000000000000000000000000000000000000000000000000000000000815260040161239790613f54565b60405180910390fd5b5b50565b6001816000016000828254019250508190555050565b505050565b6123ca8383836129e7565b6123e56123d68461088d565b6123df8461088d565b83611e56565b505050565b600073ffffffffffffffffffffffffffffffffffffffff168273ffffffffffffffffffffffffffffffffffffffff1603612459576040517f08c379a000000000000000000000000000000000000000000000000000000000815260040161245090613fc0565b60405180910390fd5b61246560008383611cda565b8060026000828254612477919061314e565b92505081905550806000808473ffffffffffffffffffffffffffffffffffffffff1673ffffffffffffffffffffffffffffffffffffffff16815260200190815260200160002060008282546124cc919061314e565b925050819055508173ffffffffffffffffffffffffffffffffffffffff16600073ffffffffffffffffffffffffffffffffffffffff167fddf252ad1be2c89b69c2b068fc378daa952ba7f163c4a11628f55a4df523b3ef836040516125319190612c65565b60405180910390a361254560008383611cf2565b5050565b60007bffffffffffffffffffffffffffffffffffffffffffffffffffffffff905090565b6000818361257b919061314e565b905092915050565b600080600085805490509050600081146125f157856001826125a591906131ee565b815481106125b6576125b5613222565b5b9060005260206000200160000160049054906101000a90047bffffffffffffffffffffffffffffffffffffffffffffffffffffffff166125f4565b60005b7bffffffffffffffffffffffffffffffffffffffffffffffffffffffff16925061262283858763ffffffff16565b91506000811180156126755750438660018361263e91906131ee565b8154811061264f5761264e613222565b5b9060005260206000200160000160009054906101000a900463ffffffff1663ffffffff16145b1561270257612683826129ec565b8660018361269191906131ee565b815481106126a2576126a1613222565b5b9060005260206000200160000160046101000a8154817bffffffffffffffffffffffffffffffffffffffffffffffffffffffff02191690837bffffffffffffffffffffffffffffffffffffffffffffffffffffffff1602179055506127f2565b85604051806040016040528061271743611aad565b63ffffffff16815260200161272b856129ec565b7bffffffffffffffffffffffffffffffffffffffffffffffffffffffff168152509080600181540180825580915050600190039060005260206000200160009091909190915060008201518160000160006101000a81548163ffffffff021916908363ffffffff16021790555060208201518160000160046101000a8154817bffffffffffffffffffffffffffffffffffffffffffffffffffffffff02191690837bffffffffffffffffffffffffffffffffffffffffffffffffffffffff16021790555050505b50935093915050565b600073ffffffffffffffffffffffffffffffffffffffff168273ffffffffffffffffffffffffffffffffffffffff160361286a576040517f08c379a000000000000000000000000000000000000000000000000000000000815260040161286190614052565b60405180910390fd5b61287682600083611cda565b60008060008473ffffffffffffffffffffffffffffffffffffffff1673ffffffffffffffffffffffffffffffffffffffff168152602001908152602001600020549050818110156128fc576040517f08c379a00000000000000000000000000000000000000000000000000000000081526004016128f3906140e4565b60405180910390fd5b8181036000808573ffffffffffffffffffffffffffffffffffffffff1673ffffffffffffffffffffffffffffffffffffffff16815260200190815260200160002081905550816002600082825461295391906131ee565b92505081905550600073ffffffffffffffffffffffffffffffffffffffff168373ffffffffffffffffffffffffffffffffffffffff167fddf252ad1be2c89b69c2b068fc378daa952ba7f163c4a11628f55a4df523b3ef846040516129b89190612c65565b60405180910390a36129cc83600084611cf2565b505050565b600081836129df91906131ee565b905092915050565b505050565b60007bffffffffffffffffffffffffffffffffffffffffffffffffffffffff8016821115612a4f576040517f08c379a0000000000000000000000000000000000000000000000000000000008152600401612a4690614176565b60405180910390fd5b819050919050565b6040518060400160405280600063ffffffff16815260200160007bffffffffffffffffffffffffffffffffffffffffffffffffffffffff1681525090565b600081519050919050565b600082825260208201905092915050565b60005b83811015612acf578082015181840152602081019050612ab4565b60008484015250505050565b6000601f19601f8301169050919050565b6000612af782612a95565b612b018185612aa0565b9350612b11818560208601612ab1565b612b1a81612adb565b840191505092915050565b60006020820190508181036000830152612b3f8184612aec565b905092915050565b600080fd5b600073ffffffffffffffffffffffffffffffffffffffff82169050919050565b6000612b7782612b4c565b9050919050565b612b8781612b6c565b8114612b9257600080fd5b50565b600081359050612ba481612b7e565b92915050565b6000819050919050565b612bbd81612baa565b8114612bc857600080fd5b50565b600081359050612bda81612bb4565b92915050565b60008060408385031215612bf757612bf6612b47565b5b6000612c0585828601612b95565b9250506020612c1685828601612bcb565b9150509250929050565b60008115159050919050565b612c3581612c20565b82525050565b6000602082019050612c506000830184612c2c565b92915050565b612c5f81612baa565b82525050565b6000602082019050612c7a6000830184612c56565b92915050565b600080600060608486031215612c9957612c98612b47565b5b6000612ca786828701612b95565b9350506020612cb886828701612b95565b9250506040612cc986828701612bcb565b9150509250925092565b600060ff82169050919050565b612ce981612cd3565b82525050565b6000602082019050612d046000830184612ce0565b92915050565b6000819050919050565b612d1d81612d0a565b82525050565b6000602082019050612d386000830184612d14565b92915050565b600060208284031215612d5457612d53612b47565b5b6000612d6284828501612bcb565b91505092915050565b600060208284031215612d8157612d80612b47565b5b6000612d8f84828501612b95565b91505092915050565b612da181612b6c565b82525050565b6000602082019050612dbc6000830184612d98565b92915050565b600063ffffffff82169050919050565b612ddb81612dc2565b82525050565b6000602082019050612df66000830184612dd2565b92915050565b612e0581612cd3565b8114612e1057600080fd5b50565b600081359050612e2281612dfc565b92915050565b612e3181612d0a565b8114612e3c57600080fd5b50565b600081359050612e4e81612e28565b92915050565b60008060008060008060c08789031215612e7157612e70612b47565b5b6000612e7f89828a01612b95565b9650506020612e9089828a01612bcb565b9550506040612ea189828a01612bcb565b9450506060612eb289828a01612e13565b9350506080612ec389828a01612e3f565b92505060a0612ed489828a01612e3f565b9150509295509295509295565b600080600080600080600060e0888a031215612f0057612eff612b47565b5b6000612f0e8a828b01612b95565b9750506020612f1f8a828b01612b95565b9650506040612f308a828b01612bcb565b9550506060612f418a828b01612bcb565b9450506080612f528a828b01612e13565b93505060a0612f638a828b01612e3f565b92505060c0612f748a828b01612e3f565b91505092959891949750929550565b60008060408385031215612f9a57612f99612b47565b5b6000612fa885828601612b95565b9250506020612fb985828601612b95565b9150509250929050565b612fcc81612dc2565b8114612fd757600080fd5b50565b600081359050612fe981612fc3565b92915050565b6000806040838503121561300657613005612b47565b5b600061301485828601612b95565b925050602061302585828601612fda565b9150509250929050565b61303881612dc2565b82525050565b60007bffffffffffffffffffffffffffffffffffffffffffffffffffffffff82169050919050565b61306f8161303e565b82525050565b60408201600082015161308b600085018261302f565b50602082015161309e6020850182613066565b50505050565b60006040820190506130b96000830184613075565b92915050565b7f4e487b7100000000000000000000000000000000000000000000000000000000600052602260045260246000fd5b6000600282049050600182168061310657607f821691505b602082108103613119576131186130bf565b5b50919050565b7f4e487b7100000000000000000000000000000000000000000000000000000000600052601160045260246000fd5b600061315982612baa565b915061316483612baa565b925082820190508082111561317c5761317b61311f565b5b92915050565b7f4552433230566f7465733a20626c6f636b206e6f7420796574206d696e656400600082015250565b60006131b8601f83612aa0565b91506131c382613182565b602082019050919050565b600060208201905081810360008301526131e7816131ab565b9050919050565b60006131f982612baa565b915061320483612baa565b925082820390508181111561321c5761321b61311f565b5b92915050565b7f4e487b7100000000000000000000000000000000000000000000000000000000600052603260045260246000fd5b7f45524332303a2064656372656173656420616c6c6f77616e63652062656c6f7760008201527f207a65726f000000000000000000000000000000000000000000000000000000602082015250565b60006132ad602583612aa0565b91506132b882613251565b604082019050919050565b600060208201905081810360008301526132dc816132a0565b9050919050565b7f4552433230566f7465733a207369676e61747572652065787069726564000000600082015250565b6000613319601d83612aa0565b9150613324826132e3565b602082019050919050565b600060208201905081810360008301526133488161330c565b9050919050565b60006080820190506133646000830187612d14565b6133716020830186612d98565b61337e6040830185612c56565b61338b6060830184612c56565b95945050505050565b7f4552433230566f7465733a20696e76616c6964206e6f6e636500000000000000600082015250565b60006133ca601983612aa0565b91506133d582613394565b602082019050919050565b600060208201905081810360008301526133f9816133bd565b9050919050565b7f45524332305065726d69743a206578706972656420646561646c696e65000000600082015250565b6000613436601d83612aa0565b915061344182613400565b602082019050919050565b6000602082019050818103600083015261346581613429565b9050919050565b600060c0820190506134816000830189612d14565b61348e6020830188612d98565b61349b6040830187612d98565b6134a86060830186612c56565b6134b56080830185612c56565b6134c260a0830184612c56565b979650505050505050565b7f45524332305065726d69743a20696e76616c6964207369676e61747572650000600082015250565b6000613503601e83612aa0565b915061350e826134cd565b602082019050919050565b60006020820190508181036000830152613532816134f6565b9050919050565b7f4f776e61626c653a206e6577206f776e657220697320746865207a65726f206160008201527f6464726573730000000000000000000000000000000000000000000000000000602082015250565b6000613595602683612aa0565b91506135a082613539565b604082019050919050565b600060208201905081810360008301526135c481613588565b9050919050565b7f45524332303a20617070726f76652066726f6d20746865207a65726f2061646460008201527f7265737300000000000000000000000000000000000000000000000000000000602082015250565b6000613627602483612aa0565b9150613632826135cb565b604082019050919050565b600060208201905081810360008301526136568161361a565b9050919050565b7f45524332303a20617070726f766520746f20746865207a65726f20616464726560008201527f7373000000000000000000000000000000000000000000000000000000000000602082015250565b60006136b9602283612aa0565b91506136c48261365d565b604082019050919050565b600060208201905081810360008301526136e8816136ac565b9050919050565b7f45524332303a20696e73756666696369656e7420616c6c6f77616e6365000000600082015250565b6000613725601d83612aa0565b9150613730826136ef565b602082019050919050565b6000602082019050818103600083015261375481613718565b9050919050565b7f45524332303a207472616e736665722066726f6d20746865207a65726f20616460008201527f6472657373000000000000000000000000000000000000000000000000000000602082015250565b60006137b7602583612aa0565b91506137c28261375b565b604082019050919050565b600060208201905081810360008301526137e6816137aa565b9050919050565b7f45524332303a207472616e7366657220746f20746865207a65726f206164647260008201527f6573730000000000000000000000000000000000000000000000000000000000602082015250565b6000613849602383612aa0565b9150613854826137ed565b604082019050919050565b600060208201905081810360008301526138788161383c565b9050919050565b7f45524332303a207472616e7366657220616d6f756e742065786365656473206260008201527f616c616e63650000000000000000000000000000000000000000000000000000602082015250565b60006138db602683612aa0565b91506138e68261387f565b604082019050919050565b6000602082019050818103600083015261390a816138ce565b9050919050565b7f4f776e61626c653a2063616c6c6572206973206e6f7420746865206f776e6572600082015250565b6000613947602083612aa0565b915061395282613911565b602082019050919050565b600060208201905081810360008301526139768161393a565b9050919050565b7f53616665436173743a2076616c756520646f65736e27742066697420696e203360008201527f3220626974730000000000000000000000000000000000000000000000000000602082015250565b60006139d9602683612aa0565b91506139e48261397d565b604082019050919050565b60006020820190508181036000830152613a08816139cc565b9050919050565b600060a082019050613a246000830188612d14565b613a316020830187612d14565b613a3e6040830186612d14565b613a4b6060830185612c56565b613a586080830184612d98565b9695505050505050565b7f4e487b7100000000000000000000000000000000000000000000000000000000600052601260045260246000fd5b6000613a9c82612baa565b9150613aa783612baa565b925082613ab757613ab6613a62565b5b828204905092915050565b7f5061757361626c653a206e6f7420706175736564000000000000000000000000600082015250565b6000613af8601483612aa0565b9150613b0382613ac2565b602082019050919050565b60006020820190508181036000830152613b2781613aeb565b9050919050565b7f4552433230566f7465733a20746f74616c20737570706c79207269736b73206f60008201527f766572666c6f77696e6720766f74657300000000000000000000000000000000602082015250565b6000613b8a603083612aa0565b9150613b9582613b2e565b604082019050919050565b60006020820190508181036000830152613bb981613b7d565b9050919050565b6000604082019050613bd56000830185612c56565b613be26020830184612c56565b9392505050565b7f5061757361626c653a2070617573656400000000000000000000000000000000600082015250565b6000613c1f601083612aa0565b9150613c2a82613be9565b602082019050919050565b60006020820190508181036000830152613c4e81613c12565b9050919050565b600081905092915050565b7f1901000000000000000000000000000000000000000000000000000000000000600082015250565b6000613c96600283613c55565b9150613ca182613c60565b600282019050919050565b6000819050919050565b613cc7613cc282612d0a565b613cac565b82525050565b6000613cd882613c89565b9150613ce48285613cb6565b602082019150613cf48284613cb6565b6020820191508190509392505050565b6000608082019050613d196000830187612d14565b613d266020830186612ce0565b613d336040830185612d14565b613d406060830184612d14565b95945050505050565b7f4e487b7100000000000000000000000000000000000000000000000000000000600052602160045260246000fd5b7f45434453413a20696e76616c6964207369676e61747572650000000000000000600082015250565b6000613dae601883612aa0565b9150613db982613d78565b602082019050919050565b60006020820190508181036000830152613ddd81613da1565b9050919050565b7f45434453413a20696e76616c6964207369676e6174757265206c656e67746800600082015250565b6000613e1a601f83612aa0565b9150613e2582613de4565b602082019050919050565b60006020820190508181036000830152613e4981613e0d565b9050919050565b7f45434453413a20696e76616c6964207369676e6174757265202773272076616c60008201527f7565000000000000000000000000000000000000000000000000000000000000602082015250565b6000613eac602283612aa0565b9150613eb782613e50565b604082019050919050565b60006020820190508181036000830152613edb81613e9f565b9050919050565b7f45434453413a20696e76616c6964207369676e6174757265202776272076616c60008201527f7565000000000000000000000000000000000000000000000000000000000000602082015250565b6000613f3e602283612aa0565b9150613f4982613ee2565b604082019050919050565b60006020820190508181036000830152613f6d81613f31565b9050919050565b7f45524332303a206d696e7420746f20746865207a65726f206164647265737300600082015250565b6000613faa601f83612aa0565b9150613fb582613f74565b602082019050919050565b60006020820190508181036000830152613fd981613f9d565b9050919050565b7f45524332303a206275726e2066726f6d20746865207a65726f2061646472657360008201527f7300000000000000000000000000000000000000000000000000000000000000602082015250565b600061403c602183612aa0565b915061404782613fe0565b604082019050919050565b6000602082019050818103600083015261406b8161402f565b9050919050565b7f45524332303a206275726e20616d6f756e7420657863656564732062616c616e60008201527f6365000000000000000000000000000000000000000000000000000000000000602082015250565b60006140ce602283612aa0565b91506140d982614072565b604082019050919050565b600060208201905081810360008301526140fd816140c1565b9050919050565b7f53616665436173743a2076616c756520646f65736e27742066697420696e203260008201527f3234206269747300000000000000000000000000000000000000000000000000602082015250565b6000614160602783612aa0565b915061416b82614104565b604082019050919050565b6000602082019050818103600083015261418f81614153565b905091905056fea2646970667358221220ac81bec20eb9c866570e97305314fc78b3f11d2816983230131eb68ee9d52a1e64736f6c63430008110033",
  "linkReferences": {},
  "deployedLinkReferences": {}
}